{
  "_format": "hh-sol-artifact-1",
  "contractName": "StaoImplement",
  "sourceName": "contracts/StaoImplement.sol",
  "abi": [
    {
      "inputs": [
        {
          "internalType": "contract ZoraNFTCreatorV1",
          "name": "_zoraNFTCreator",
          "type": "address"
        },
        {
          "internalType": "string",
          "name": "_name",
          "type": "string"
        },
        {
          "internalType": "string",
          "name": "_symbol",
          "type": "string"
        },
        {
          "internalType": "string",
          "name": "_description",
          "type": "string"
        }
      ],
      "stateMutability": "nonpayable",
      "type": "constructor"
    },
    {
      "anonymous": false,
      "inputs": [
        {
          "indexed": false,
          "internalType": "address",
          "name": "creator",
          "type": "address"
        },
        {
          "indexed": false,
          "internalType": "address",
          "name": "collection",
          "type": "address"
        },
        {
          "indexed": false,
          "internalType": "uint256",
          "name": "timestamp",
          "type": "uint256"
        }
      ],
      "name": "CreateNFT",
      "type": "event"
    },
    {
      "anonymous": false,
      "inputs": [
        {
          "indexed": true,
          "internalType": "address",
          "name": "previousOwner",
          "type": "address"
        },
        {
          "indexed": true,
          "internalType": "address",
          "name": "newOwner",
          "type": "address"
        }
      ],
      "name": "OwnershipTransferred",
      "type": "event"
    },
    {
      "inputs": [],
      "name": "animationURI",
      "outputs": [
        {
          "internalType": "string",
          "name": "",
          "type": "string"
        }
      ],
      "stateMutability": "view",
      "type": "function"
    },
    {
      "inputs": [],
      "name": "createNFT",
      "outputs": [],
      "stateMutability": "nonpayable",
      "type": "function"
    },
    {
      "inputs": [],
      "name": "defaultAdmin",
      "outputs": [
        {
          "internalType": "address",
          "name": "",
          "type": "address"
        }
      ],
      "stateMutability": "view",
      "type": "function"
    },
    {
      "inputs": [],
      "name": "description",
      "outputs": [
        {
          "internalType": "string",
          "name": "",
          "type": "string"
        }
      ],
      "stateMutability": "view",
      "type": "function"
    },
    {
      "inputs": [],
      "name": "editionSize",
      "outputs": [
        {
          "internalType": "uint64",
          "name": "",
          "type": "uint64"
        }
      ],
      "stateMutability": "view",
      "type": "function"
    },
    {
      "inputs": [],
      "name": "fundsRecipient",
      "outputs": [
        {
          "internalType": "address payable",
          "name": "",
          "type": "address"
        }
      ],
      "stateMutability": "view",
      "type": "function"
    },
    {
      "inputs": [],
      "name": "imageURI",
      "outputs": [
        {
          "internalType": "string",
          "name": "",
          "type": "string"
        }
      ],
      "stateMutability": "view",
      "type": "function"
    },
    {
      "inputs": [],
      "name": "isVoteCompleted",
      "outputs": [
        {
          "internalType": "bool",
          "name": "",
          "type": "bool"
        }
      ],
      "stateMutability": "view",
      "type": "function"
    },
    {
      "inputs": [],
      "name": "name",
      "outputs": [
        {
          "internalType": "string",
          "name": "",
          "type": "string"
        }
      ],
      "stateMutability": "view",
      "type": "function"
    },
    {
      "inputs": [],
      "name": "owner",
      "outputs": [
        {
          "internalType": "address",
          "name": "",
          "type": "address"
        }
      ],
      "stateMutability": "view",
      "type": "function"
    },
    {
      "inputs": [],
      "name": "renounceOwnership",
      "outputs": [],
      "stateMutability": "nonpayable",
      "type": "function"
    },
    {
      "inputs": [],
      "name": "royaltyBPS",
      "outputs": [
        {
          "internalType": "uint16",
          "name": "",
          "type": "uint16"
        }
      ],
      "stateMutability": "view",
      "type": "function"
    },
    {
      "inputs": [],
      "name": "saleConfig",
      "outputs": [
        {
          "internalType": "uint104",
          "name": "publicSalePrice",
          "type": "uint104"
        },
        {
          "internalType": "uint32",
          "name": "maxSalePurchasePerAddress",
          "type": "uint32"
        },
        {
          "internalType": "uint64",
          "name": "publicSaleStart",
          "type": "uint64"
        },
        {
          "internalType": "uint64",
          "name": "publicSaleEnd",
          "type": "uint64"
        },
        {
          "internalType": "uint64",
          "name": "presaleStart",
          "type": "uint64"
        },
        {
          "internalType": "uint64",
          "name": "presaleEnd",
          "type": "uint64"
        },
        {
          "internalType": "bytes32",
          "name": "presaleMerkleRoot",
          "type": "bytes32"
        }
      ],
      "stateMutability": "view",
      "type": "function"
    },
    {
      "inputs": [
        {
          "internalType": "string",
          "name": "_animationURI",
          "type": "string"
        }
      ],
      "name": "setAnimationURI",
      "outputs": [],
      "stateMutability": "nonpayable",
      "type": "function"
    },
    {
      "inputs": [
        {
          "internalType": "uint64",
          "name": "_editionSize",
          "type": "uint64"
        }
      ],
      "name": "setEditionSize",
      "outputs": [],
      "stateMutability": "nonpayable",
      "type": "function"
    },
    {
      "inputs": [
        {
          "internalType": "string",
          "name": "_imageURI",
          "type": "string"
        }
      ],
      "name": "setImageURI",
      "outputs": [],
      "stateMutability": "nonpayable",
      "type": "function"
    },
    {
      "inputs": [
        {
          "internalType": "bool",
          "name": "_isVoteCompleted",
          "type": "bool"
        }
      ],
      "name": "setIsVoteCompleted",
      "outputs": [],
      "stateMutability": "nonpayable",
      "type": "function"
    },
    {
      "inputs": [
        {
          "internalType": "uint16",
          "name": "_royaltyBPS",
          "type": "uint16"
        }
      ],
      "name": "setRoyaltyBPS",
      "outputs": [],
      "stateMutability": "nonpayable",
      "type": "function"
    },
    {
      "inputs": [
        {
          "components": [
            {
              "internalType": "uint104",
              "name": "publicSalePrice",
              "type": "uint104"
            },
            {
              "internalType": "uint32",
              "name": "maxSalePurchasePerAddress",
              "type": "uint32"
            },
            {
              "internalType": "uint64",
              "name": "publicSaleStart",
              "type": "uint64"
            },
            {
              "internalType": "uint64",
              "name": "publicSaleEnd",
              "type": "uint64"
            },
            {
              "internalType": "uint64",
              "name": "presaleStart",
              "type": "uint64"
            },
            {
              "internalType": "uint64",
              "name": "presaleEnd",
              "type": "uint64"
            },
            {
              "internalType": "bytes32",
              "name": "presaleMerkleRoot",
              "type": "bytes32"
            }
          ],
          "internalType": "struct IERC721Drop.SalesConfiguration",
          "name": "_saleConfig",
          "type": "tuple"
        }
      ],
      "name": "setSaleConfig",
      "outputs": [],
      "stateMutability": "nonpayable",
      "type": "function"
    },
    {
      "inputs": [],
      "name": "staoNFT",
      "outputs": [
        {
          "internalType": "contract IERC721Drop",
          "name": "",
          "type": "address"
        }
      ],
      "stateMutability": "view",
      "type": "function"
    },
    {
      "inputs": [],
      "name": "symbol",
      "outputs": [
        {
          "internalType": "string",
          "name": "",
          "type": "string"
        }
      ],
      "stateMutability": "view",
      "type": "function"
    },
    {
      "inputs": [
        {
          "internalType": "address",
          "name": "newOwner",
          "type": "address"
        }
      ],
      "name": "transferOwnership",
      "outputs": [],
      "stateMutability": "nonpayable",
      "type": "function"
    },
    {
      "inputs": [],
      "name": "zoraNFTCreator",
      "outputs": [
        {
          "internalType": "contract ZoraNFTCreatorV1",
          "name": "",
          "type": "address"
        }
      ],
      "stateMutability": "view",
      "type": "function"
    }
  ],
  "bytecode": "0x60806040523480156200001157600080fd5b50604051620011bf380380620011bf83398101604081905262000034916200029d565b6200003f33620000da565b600180546001600160a01b03199081166001600160a01b0387161790915560058054600160501b600160f01b031916336a0100000000000000000000810291909117909155600680549092161790558251620000a39060039060208601906200012a565b508151620000b99060049060208501906200012a565b508051620000cf90600a9060208401906200012a565b50505050506200038c565b600080546001600160a01b038381166001600160a01b0319831681178455604051919092169283917f8be0079c531659141344cd1fd0a4f28419497f9722a3daafe3b4186f6b6457e09190a35050565b82805462000138906200034f565b90600052602060002090601f0160209004810192826200015c5760008555620001a7565b82601f106200017757805160ff1916838001178555620001a7565b82800160010185558215620001a7579182015b82811115620001a75782518255916020019190600101906200018a565b50620001b5929150620001b9565b5090565b5b80821115620001b55760008155600101620001ba565b634e487b7160e01b600052604160045260246000fd5b600082601f830112620001f857600080fd5b81516001600160401b0380821115620002155762000215620001d0565b604051601f8301601f19908116603f01168101908282118183101715620002405762000240620001d0565b816040528381526020925086838588010111156200025d57600080fd5b600091505b8382101562000281578582018301518183018401529082019062000262565b83821115620002935760008385830101525b9695505050505050565b60008060008060808587031215620002b457600080fd5b84516001600160a01b0381168114620002cc57600080fd5b60208601519094506001600160401b0380821115620002ea57600080fd5b620002f888838901620001e6565b945060408701519150808211156200030f57600080fd5b6200031d88838901620001e6565b935060608701519150808211156200033457600080fd5b506200034387828801620001e6565b91505092959194509250565b600181811c908216806200036457607f821691505b602082108114156200038657634e487b7160e01b600052602260045260246000fd5b50919050565b610e23806200039c6000396000f3fe608060405234801561001057600080fd5b506004361061014d5760003560e01c80638da5cb5b116100c3578063b9c9d93a1161007c578063b9c9d93a1461030f578063c5ac58e114610337578063c7273a551461034a578063e0f721271461035d578063f2fde38b1461037a578063f4ed0f461461038d57600080fd5b80638da5cb5b1461021f57806390aa0b0f1461023057806391330010146102d957806395d89b41146102ec578063b51bbbdf146102f4578063b8a0456d146102fc57600080fd5b80633b6fd2cf116101155780633b6fd2cf146101c7578063715018a6146101e15780637284e416146101e9578063782ac1d5146101f157806384ef8ffc146102045780638a97ec2a1461021757600080fd5b80630300585b1461015257806304787ca21461018257806306fdde03146101975780630752fc3d146101ac578063135d088d146101bf575b600080fd5b600154610165906001600160a01b031681565b6040516001600160a01b0390911681526020015b60405180910390f35b61019561019036600461097c565b6103ba565b005b61019f6103d9565b6040516101799190610a2d565b6101956101ba366004610ab3565b610467565b61019f61053e565b60055461016590600160501b90046001600160a01b031681565b61019561054b565b61019f61055f565b6101956101ff366004610b4f565b61056c565b600654610165906001600160a01b031681565b610195610598565b6000546001600160a01b0316610165565b600754600854600954610286926001600160681b03811692600160681b820463ffffffff1692600160881b90920467ffffffffffffffff9081169281831692600160401b8104831692600160801b909104169087565b604080516001600160681b03909816885263ffffffff909616602088015267ffffffffffffffff948516958701959095529183166060860152821660808501521660a083015260c082015260e001610179565b6101956102e7366004610b71565b610702565b61019f610731565b61019f61073e565b600254610165906001600160a01b031681565b60055461032490600160401b900461ffff1681565b60405161ffff9091168152602001610179565b61019561034536600461097c565b61074b565b610195610358366004610b95565b610766565b600d5461036a9060ff1681565b6040519015158152602001610179565b610195610388366004610bcc565b610781565b6005546103a19067ffffffffffffffff1681565b60405167ffffffffffffffff9091168152602001610179565b6103c26107fa565b80516103d590600c9060208401906108a4565b5050565b600380546103e690610be9565b80601f016020809104026020016040519081016040528092919081815260200182805461041290610be9565b801561045f5780601f106104345761010080835404028352916020019161045f565b820191906000526020600020905b81548152906001019060200180831161044257829003601f168201915b505050505081565b61046f6107fa565b8051600780546020840151604085015167ffffffffffffffff908116600160881b0267ffffffffffffffff60881b1963ffffffff909316600160681b0270ffffffffffffffffffffffffffffffffff199094166001600160681b03909616959095179290921716929092179055606082015160088054608085015160a08601518516600160801b0267ffffffffffffffff60801b19918616600160401b026fffffffffffffffffffffffffffffffff199093169490951693909317179190911691909117905560c00151600955565b600c80546103e690610be9565b6105536107fa565b61055d6000610854565b565b600a80546103e690610be9565b6105746107fa565b6005805467ffffffffffffffff191667ffffffffffffffff92909216919091179055565b6105a06107fa565b600d5460ff166105ed5760405162461bcd60e51b81526020600482015260136024820152724e6f7420766f746520636f6d706c657465642160681b60448201526064015b60405180910390fd5b600154600554600654604051633857fb1360e01b81526000936001600160a01b0390811693633857fb139361065a9360039360049367ffffffffffffffff81169361ffff600160401b83041693600160501b9092048316921690600790600a90600b90600c908901610cc4565b6020604051808303816000875af1158015610679573d6000803e3d6000fd5b505050506040513d601f19601f8201168201806040525081019061069d9190610dd0565b600280546001600160a01b0319166001600160a01b03831690811790915560408051338152602081019290925242908201529091507fca023111ce579fd569ab315f8a2a582e06724863f5f8898b2c0c6cc9ed6cd6169060600160405180910390a150565b61070a6107fa565b6005805461ffff909216600160401b0269ffff000000000000000019909216919091179055565b600480546103e690610be9565b600b80546103e690610be9565b6107536107fa565b80516103d590600b9060208401906108a4565b61076e6107fa565b600d805460ff1916911515919091179055565b6107896107fa565b6001600160a01b0381166107ee5760405162461bcd60e51b815260206004820152602660248201527f4f776e61626c653a206e6577206f776e657220697320746865207a65726f206160448201526564647265737360d01b60648201526084016105e4565b6107f781610854565b50565b6000546001600160a01b0316331461055d5760405162461bcd60e51b815260206004820181905260248201527f4f776e61626c653a2063616c6c6572206973206e6f7420746865206f776e657260448201526064016105e4565b600080546001600160a01b038381166001600160a01b0319831681178455604051919092169283917f8be0079c531659141344cd1fd0a4f28419497f9722a3daafe3b4186f6b6457e09190a35050565b8280546108b090610be9565b90600052602060002090601f0160209004810192826108d25760008555610918565b82601f106108eb57805160ff1916838001178555610918565b82800160010185558215610918579182015b828111156109185782518255916020019190600101906108fd565b50610924929150610928565b5090565b5b808211156109245760008155600101610929565b634e487b7160e01b600052604160045260246000fd5b60405160e0810167ffffffffffffffff811182821017156109765761097661093d565b60405290565b60006020828403121561098e57600080fd5b813567ffffffffffffffff808211156109a657600080fd5b818401915084601f8301126109ba57600080fd5b8135818111156109cc576109cc61093d565b604051601f8201601f19908116603f011681019083821181831017156109f4576109f461093d565b81604052828152876020848701011115610a0d57600080fd5b826020860160208301376000928101602001929092525095945050505050565b600060208083528351808285015260005b81811015610a5a57858101830151858201604001528201610a3e565b81811115610a6c576000604083870101525b50601f01601f1916929092016040019392505050565b803563ffffffff81168114610a9657600080fd5b919050565b803567ffffffffffffffff81168114610a9657600080fd5b600060e08284031215610ac557600080fd5b610acd610953565b82356001600160681b0381168114610ae457600080fd5b8152610af260208401610a82565b6020820152610b0360408401610a9b565b6040820152610b1460608401610a9b565b6060820152610b2560808401610a9b565b6080820152610b3660a08401610a9b565b60a082015260c083013560c08201528091505092915050565b600060208284031215610b6157600080fd5b610b6a82610a9b565b9392505050565b600060208284031215610b8357600080fd5b813561ffff81168114610b6a57600080fd5b600060208284031215610ba757600080fd5b81358015158114610b6a57600080fd5b6001600160a01b03811681146107f757600080fd5b600060208284031215610bde57600080fd5b8135610b6a81610bb7565b600181811c90821680610bfd57607f821691505b60208210811415610c1e57634e487b7160e01b600052602260045260246000fd5b50919050565b8054600090600181811c9080831680610c3e57607f831692505b6020808410821415610c6057634e487b7160e01b600052602260045260246000fd5b83885260208801828015610c7b5760018114610c8c57610cb7565b60ff19871682528282019750610cb7565b60008981526020902060005b87811015610cb157815484820152908601908401610c98565b83019850505b5050505050505092915050565b6000610200808352610cd88184018e610c24565b90508281036020840152610cec818d610c24565b67ffffffffffffffff8c811660408681019190915261ffff8d1660608701526001600160a01b038c8116608080890191909152908c1660a08801528a546001600160681b03811660c0890152606881901c63ffffffff1660e089015260881c831661010088015260018b01548084166101208901529182901c83166101408801521c16610160850152600288015461018085015290508281036101a0840152610d958187610c24565b90508281036101c0840152610daa8186610c24565b90508281036101e0840152610dbf8185610c24565b9d9c50505050505050505050505050565b600060208284031215610de257600080fd5b8151610b6a81610bb756fea26469706673582212208b6a389557a3a5d10cad7794eeac353f735f0e883bda0cd330c76e56045e8ca564736f6c634300080a0033",
  "linkReferences": {},
  "deployedLinkReferences": {}
}