{
  "_format": "hh-sol-artifact-1",
  "contractName": "Stao",
  "sourceName": "contracts/Stao.sol",
  "abi": [
    {
      "inputs": [
        {
          "internalType": "string",
          "name": "_name",
          "type": "string"
        },
        {
          "internalType": "string",
          "name": "_symbol",
          "type": "string"
        },
        {
          "internalType": "string",
          "name": "_description",
          "type": "string"
        },
        {
          "internalType": "uint256",
          "name": "_amountPerContributor",
          "type": "uint256"
        },
        {
          "internalType": "uint256",
          "name": "_maxContributors",
          "type": "uint256"
        },
        {
          "internalType": "uint256",
          "name": "_contribitorShareBPS",
          "type": "uint256"
        },
        {
          "internalType": "uint256",
          "name": "_minDelay",
          "type": "uint256"
        },
        {
          "internalType": "uint256",
          "name": "_quorumPercentage",
          "type": "uint256"
        },
        {
          "internalType": "uint256",
          "name": "_votingPeriod",
          "type": "uint256"
        },
        {
          "internalType": "uint256",
          "name": "_votingDelay",
          "type": "uint256"
        },
        {
          "internalType": "contract ZoraNFTCreatorV1",
          "name": "_zoraCreator",
          "type": "address"
        }
      ],
      "stateMutability": "nonpayable",
      "type": "constructor"
    },
    {
      "anonymous": false,
      "inputs": [
        {
          "indexed": true,
          "internalType": "address",
          "name": "owner",
          "type": "address"
        },
        {
          "indexed": true,
          "internalType": "address",
          "name": "spender",
          "type": "address"
        },
        {
          "indexed": false,
          "internalType": "uint256",
          "name": "value",
          "type": "uint256"
        }
      ],
      "name": "Approval",
      "type": "event"
    },
    {
      "anonymous": false,
      "inputs": [
        {
          "indexed": false,
          "internalType": "address",
          "name": "contributors",
          "type": "address"
        }
      ],
      "name": "Contribution",
      "type": "event"
    },
    {
      "anonymous": false,
      "inputs": [
        {
          "indexed": true,
          "internalType": "address",
          "name": "delegator",
          "type": "address"
        },
        {
          "indexed": true,
          "internalType": "address",
          "name": "fromDelegate",
          "type": "address"
        },
        {
          "indexed": true,
          "internalType": "address",
          "name": "toDelegate",
          "type": "address"
        }
      ],
      "name": "DelegateChanged",
      "type": "event"
    },
    {
      "anonymous": false,
      "inputs": [
        {
          "indexed": true,
          "internalType": "address",
          "name": "delegate",
          "type": "address"
        },
        {
          "indexed": false,
          "internalType": "uint256",
          "name": "previousBalance",
          "type": "uint256"
        },
        {
          "indexed": false,
          "internalType": "uint256",
          "name": "newBalance",
          "type": "uint256"
        }
      ],
      "name": "DelegateVotesChanged",
      "type": "event"
    },
    {
      "anonymous": false,
      "inputs": [
        {
          "indexed": true,
          "internalType": "address",
          "name": "previousOwner",
          "type": "address"
        },
        {
          "indexed": true,
          "internalType": "address",
          "name": "newOwner",
          "type": "address"
        }
      ],
      "name": "OwnershipTransferred",
      "type": "event"
    },
    {
      "anonymous": false,
      "inputs": [
        {
          "indexed": true,
          "internalType": "address",
          "name": "from",
          "type": "address"
        },
        {
          "indexed": true,
          "internalType": "address",
          "name": "to",
          "type": "address"
        },
        {
          "indexed": false,
          "internalType": "uint256",
          "name": "value",
          "type": "uint256"
        }
      ],
      "name": "Transfer",
      "type": "event"
    },
    {
      "inputs": [],
      "name": "CREATE_NFT",
      "outputs": [
        {
          "internalType": "bytes32",
          "name": "",
          "type": "bytes32"
        }
      ],
      "stateMutability": "view",
      "type": "function"
    },
    {
      "inputs": [],
      "name": "DOMAIN_SEPARATOR",
      "outputs": [
        {
          "internalType": "bytes32",
          "name": "",
          "type": "bytes32"
        }
      ],
      "stateMutability": "view",
      "type": "function"
    },
    {
      "inputs": [],
      "name": "SET_ANIMATION_URI",
      "outputs": [
        {
          "internalType": "bytes32",
          "name": "",
          "type": "bytes32"
        }
      ],
      "stateMutability": "view",
      "type": "function"
    },
    {
      "inputs": [],
      "name": "SET_EDITION_SIZE",
      "outputs": [
        {
          "internalType": "bytes32",
          "name": "",
          "type": "bytes32"
        }
      ],
      "stateMutability": "view",
      "type": "function"
    },
    {
      "inputs": [],
      "name": "SET_IMAGE_URI",
      "outputs": [
        {
          "internalType": "bytes32",
          "name": "",
          "type": "bytes32"
        }
      ],
      "stateMutability": "view",
      "type": "function"
    },
    {
      "inputs": [],
      "name": "SET_IS_VOTE_COMPLETED",
      "outputs": [
        {
          "internalType": "bytes32",
          "name": "",
          "type": "bytes32"
        }
      ],
      "stateMutability": "view",
      "type": "function"
    },
    {
      "inputs": [],
      "name": "SET_ROYALTY_BPS",
      "outputs": [
        {
          "internalType": "bytes32",
          "name": "",
          "type": "bytes32"
        }
      ],
      "stateMutability": "view",
      "type": "function"
    },
    {
      "inputs": [],
      "name": "SET_SALE_CONFIG",
      "outputs": [
        {
          "internalType": "bytes32",
          "name": "",
          "type": "bytes32"
        }
      ],
      "stateMutability": "view",
      "type": "function"
    },
    {
      "inputs": [
        {
          "internalType": "address",
          "name": "owner",
          "type": "address"
        },
        {
          "internalType": "address",
          "name": "spender",
          "type": "address"
        }
      ],
      "name": "allowance",
      "outputs": [
        {
          "internalType": "uint256",
          "name": "",
          "type": "uint256"
        }
      ],
      "stateMutability": "view",
      "type": "function"
    },
    {
      "inputs": [],
      "name": "amountPerContributor",
      "outputs": [
        {
          "internalType": "uint256",
          "name": "",
          "type": "uint256"
        }
      ],
      "stateMutability": "view",
      "type": "function"
    },
    {
      "inputs": [],
      "name": "animationURI",
      "outputs": [
        {
          "internalType": "string",
          "name": "",
          "type": "string"
        }
      ],
      "stateMutability": "view",
      "type": "function"
    },
    {
      "inputs": [
        {
          "internalType": "address",
          "name": "spender",
          "type": "address"
        },
        {
          "internalType": "uint256",
          "name": "amount",
          "type": "uint256"
        }
      ],
      "name": "approve",
      "outputs": [
        {
          "internalType": "bool",
          "name": "",
          "type": "bool"
        }
      ],
      "stateMutability": "nonpayable",
      "type": "function"
    },
    {
      "inputs": [
        {
          "internalType": "address",
          "name": "account",
          "type": "address"
        }
      ],
      "name": "balanceOf",
      "outputs": [
        {
          "internalType": "uint256",
          "name": "",
          "type": "uint256"
        }
      ],
      "stateMutability": "view",
      "type": "function"
    },
    {
      "inputs": [],
      "name": "callData",
      "outputs": [
        {
          "internalType": "bytes",
          "name": "",
          "type": "bytes"
        }
      ],
      "stateMutability": "view",
      "type": "function"
    },
    {
      "inputs": [
        {
          "internalType": "address",
          "name": "account",
          "type": "address"
        },
        {
          "internalType": "uint32",
          "name": "pos",
          "type": "uint32"
        }
      ],
      "name": "checkpoints",
      "outputs": [
        {
          "components": [
            {
              "internalType": "uint32",
              "name": "fromBlock",
              "type": "uint32"
            },
            {
              "internalType": "uint224",
              "name": "votes",
              "type": "uint224"
            }
          ],
          "internalType": "struct ERC20Votes.Checkpoint",
          "name": "",
          "type": "tuple"
        }
      ],
      "stateMutability": "view",
      "type": "function"
    },
    {
      "inputs": [],
      "name": "contribitorShareBPS",
      "outputs": [
        {
          "internalType": "uint256",
          "name": "",
          "type": "uint256"
        }
      ],
      "stateMutability": "view",
      "type": "function"
    },
    {
      "inputs": [],
      "name": "contribute",
      "outputs": [],
      "stateMutability": "payable",
      "type": "function"
    },
    {
      "inputs": [],
      "name": "contributorsAmount",
      "outputs": [
        {
          "internalType": "uint256",
          "name": "",
          "type": "uint256"
        }
      ],
      "stateMutability": "view",
      "type": "function"
    },
    {
      "inputs": [],
      "name": "decimals",
      "outputs": [
        {
          "internalType": "uint8",
          "name": "",
          "type": "uint8"
        }
      ],
      "stateMutability": "view",
      "type": "function"
    },
    {
      "inputs": [
        {
          "internalType": "address",
          "name": "spender",
          "type": "address"
        },
        {
          "internalType": "uint256",
          "name": "subtractedValue",
          "type": "uint256"
        }
      ],
      "name": "decreaseAllowance",
      "outputs": [
        {
          "internalType": "bool",
          "name": "",
          "type": "bool"
        }
      ],
      "stateMutability": "nonpayable",
      "type": "function"
    },
    {
      "inputs": [
        {
          "internalType": "address",
          "name": "delegatee",
          "type": "address"
        }
      ],
      "name": "delegate",
      "outputs": [],
      "stateMutability": "nonpayable",
      "type": "function"
    },
    {
      "inputs": [
        {
          "internalType": "address",
          "name": "delegatee",
          "type": "address"
        },
        {
          "internalType": "uint256",
          "name": "nonce",
          "type": "uint256"
        },
        {
          "internalType": "uint256",
          "name": "expiry",
          "type": "uint256"
        },
        {
          "internalType": "uint8",
          "name": "v",
          "type": "uint8"
        },
        {
          "internalType": "bytes32",
          "name": "r",
          "type": "bytes32"
        },
        {
          "internalType": "bytes32",
          "name": "s",
          "type": "bytes32"
        }
      ],
      "name": "delegateBySig",
      "outputs": [],
      "stateMutability": "nonpayable",
      "type": "function"
    },
    {
      "inputs": [
        {
          "internalType": "address",
          "name": "account",
          "type": "address"
        }
      ],
      "name": "delegates",
      "outputs": [
        {
          "internalType": "address",
          "name": "",
          "type": "address"
        }
      ],
      "stateMutability": "view",
      "type": "function"
    },
    {
      "inputs": [],
      "name": "description",
      "outputs": [
        {
          "internalType": "string",
          "name": "",
          "type": "string"
        }
      ],
      "stateMutability": "view",
      "type": "function"
    },
    {
      "inputs": [],
      "name": "editionSize",
      "outputs": [
        {
          "internalType": "uint64",
          "name": "",
          "type": "uint64"
        }
      ],
      "stateMutability": "view",
      "type": "function"
    },
    {
      "inputs": [],
      "name": "executeProposal",
      "outputs": [],
      "stateMutability": "nonpayable",
      "type": "function"
    },
    {
      "inputs": [
        {
          "internalType": "uint256",
          "name": "blockNumber",
          "type": "uint256"
        }
      ],
      "name": "getPastTotalSupply",
      "outputs": [
        {
          "internalType": "uint256",
          "name": "",
          "type": "uint256"
        }
      ],
      "stateMutability": "view",
      "type": "function"
    },
    {
      "inputs": [
        {
          "internalType": "address",
          "name": "account",
          "type": "address"
        },
        {
          "internalType": "uint256",
          "name": "blockNumber",
          "type": "uint256"
        }
      ],
      "name": "getPastVotes",
      "outputs": [
        {
          "internalType": "uint256",
          "name": "",
          "type": "uint256"
        }
      ],
      "stateMutability": "view",
      "type": "function"
    },
    {
      "inputs": [
        {
          "internalType": "address",
          "name": "account",
          "type": "address"
        }
      ],
      "name": "getVotes",
      "outputs": [
        {
          "internalType": "uint256",
          "name": "",
          "type": "uint256"
        }
      ],
      "stateMutability": "view",
      "type": "function"
    },
    {
      "inputs": [],
      "name": "imageURI",
      "outputs": [
        {
          "internalType": "string",
          "name": "",
          "type": "string"
        }
      ],
      "stateMutability": "view",
      "type": "function"
    },
    {
      "inputs": [
        {
          "internalType": "address",
          "name": "spender",
          "type": "address"
        },
        {
          "internalType": "uint256",
          "name": "addedValue",
          "type": "uint256"
        }
      ],
      "name": "increaseAllowance",
      "outputs": [
        {
          "internalType": "bool",
          "name": "",
          "type": "bool"
        }
      ],
      "stateMutability": "nonpayable",
      "type": "function"
    },
    {
      "inputs": [
        {
          "internalType": "address",
          "name": "",
          "type": "address"
        }
      ],
      "name": "isContribute",
      "outputs": [
        {
          "internalType": "bool",
          "name": "",
          "type": "bool"
        }
      ],
      "stateMutability": "view",
      "type": "function"
    },
    {
      "inputs": [],
      "name": "isVoteCompleted",
      "outputs": [
        {
          "internalType": "bool",
          "name": "",
          "type": "bool"
        }
      ],
      "stateMutability": "view",
      "type": "function"
    },
    {
      "inputs": [],
      "name": "maxContributors",
      "outputs": [
        {
          "internalType": "uint256",
          "name": "",
          "type": "uint256"
        }
      ],
      "stateMutability": "view",
      "type": "function"
    },
    {
      "inputs": [],
      "name": "name",
      "outputs": [
        {
          "internalType": "string",
          "name": "",
          "type": "string"
        }
      ],
      "stateMutability": "view",
      "type": "function"
    },
    {
      "inputs": [
        {
          "internalType": "address",
          "name": "owner",
          "type": "address"
        }
      ],
      "name": "nonces",
      "outputs": [
        {
          "internalType": "uint256",
          "name": "",
          "type": "uint256"
        }
      ],
      "stateMutability": "view",
      "type": "function"
    },
    {
      "inputs": [
        {
          "internalType": "address",
          "name": "account",
          "type": "address"
        }
      ],
      "name": "numCheckpoints",
      "outputs": [
        {
          "internalType": "uint32",
          "name": "",
          "type": "uint32"
        }
      ],
      "stateMutability": "view",
      "type": "function"
    },
    {
      "inputs": [],
      "name": "owner",
      "outputs": [
        {
          "internalType": "address",
          "name": "",
          "type": "address"
        }
      ],
      "stateMutability": "view",
      "type": "function"
    },
    {
      "inputs": [
        {
          "internalType": "address",
          "name": "owner",
          "type": "address"
        },
        {
          "internalType": "address",
          "name": "spender",
          "type": "address"
        },
        {
          "internalType": "uint256",
          "name": "value",
          "type": "uint256"
        },
        {
          "internalType": "uint256",
          "name": "deadline",
          "type": "uint256"
        },
        {
          "internalType": "uint8",
          "name": "v",
          "type": "uint8"
        },
        {
          "internalType": "bytes32",
          "name": "r",
          "type": "bytes32"
        },
        {
          "internalType": "bytes32",
          "name": "s",
          "type": "bytes32"
        }
      ],
      "name": "permit",
      "outputs": [],
      "stateMutability": "nonpayable",
      "type": "function"
    },
    {
      "inputs": [],
      "name": "projectState",
      "outputs": [
        {
          "internalType": "enum Stao.ProjectState",
          "name": "",
          "type": "uint8"
        }
      ],
      "stateMutability": "view",
      "type": "function"
    },
    {
      "inputs": [
        {
          "internalType": "string",
          "name": "_animationURI",
          "type": "string"
        },
        {
          "internalType": "bytes",
          "name": "_callData",
          "type": "bytes"
        },
        {
          "internalType": "string",
          "name": "_description",
          "type": "string"
        }
      ],
      "name": "proposeAnimationURI",
      "outputs": [],
      "stateMutability": "nonpayable",
      "type": "function"
    },
    {
      "inputs": [
        {
          "internalType": "bytes",
          "name": "_callData",
          "type": "bytes"
        },
        {
          "internalType": "string",
          "name": "_description",
          "type": "string"
        }
      ],
      "name": "proposeCreateNFT",
      "outputs": [],
      "stateMutability": "nonpayable",
      "type": "function"
    },
    {
      "inputs": [
        {
          "internalType": "uint64",
          "name": "_editionSize",
          "type": "uint64"
        },
        {
          "internalType": "bytes",
          "name": "_callData",
          "type": "bytes"
        },
        {
          "internalType": "string",
          "name": "_description",
          "type": "string"
        }
      ],
      "name": "proposeEditionSize",
      "outputs": [],
      "stateMutability": "nonpayable",
      "type": "function"
    },
    {
      "inputs": [
        {
          "internalType": "string",
          "name": "_imageURI",
          "type": "string"
        },
        {
          "internalType": "bytes",
          "name": "_callData",
          "type": "bytes"
        },
        {
          "internalType": "string",
          "name": "_description",
          "type": "string"
        }
      ],
      "name": "proposeImageURI",
      "outputs": [],
      "stateMutability": "nonpayable",
      "type": "function"
    },
    {
      "inputs": [
        {
          "internalType": "bool",
          "name": "_isVoteCompleted",
          "type": "bool"
        },
        {
          "internalType": "bytes",
          "name": "_callData",
          "type": "bytes"
        },
        {
          "internalType": "string",
          "name": "_description",
          "type": "string"
        }
      ],
      "name": "proposeIsVoteCompleted",
      "outputs": [],
      "stateMutability": "nonpayable",
      "type": "function"
    },
    {
      "inputs": [
        {
          "internalType": "uint16",
          "name": "_royaltyBPS",
          "type": "uint16"
        },
        {
          "internalType": "bytes",
          "name": "_callData",
          "type": "bytes"
        },
        {
          "internalType": "string",
          "name": "_description",
          "type": "string"
        }
      ],
      "name": "proposeRoyaltyBPS",
      "outputs": [],
      "stateMutability": "nonpayable",
      "type": "function"
    },
    {
      "inputs": [
        {
          "components": [
            {
              "internalType": "uint104",
              "name": "publicSalePrice",
              "type": "uint104"
            },
            {
              "internalType": "uint32",
              "name": "maxSalePurchasePerAddress",
              "type": "uint32"
            },
            {
              "internalType": "uint64",
              "name": "publicSaleStart",
              "type": "uint64"
            },
            {
              "internalType": "uint64",
              "name": "publicSaleEnd",
              "type": "uint64"
            },
            {
              "internalType": "uint64",
              "name": "presaleStart",
              "type": "uint64"
            },
            {
              "internalType": "uint64",
              "name": "presaleEnd",
              "type": "uint64"
            },
            {
              "internalType": "bytes32",
              "name": "presaleMerkleRoot",
              "type": "bytes32"
            }
          ],
          "internalType": "struct IERC721Drop.SalesConfiguration",
          "name": "_salesConfig",
          "type": "tuple"
        },
        {
          "internalType": "bytes",
          "name": "_callData",
          "type": "bytes"
        },
        {
          "internalType": "string",
          "name": "_description",
          "type": "string"
        }
      ],
      "name": "proposeSaleConfig",
      "outputs": [],
      "stateMutability": "nonpayable",
      "type": "function"
    },
    {
      "inputs": [
        {
          "internalType": "bytes32",
          "name": "",
          "type": "bytes32"
        }
      ],
      "name": "proposeToId",
      "outputs": [
        {
          "internalType": "uint256",
          "name": "",
          "type": "uint256"
        }
      ],
      "stateMutability": "view",
      "type": "function"
    },
    {
      "inputs": [],
      "name": "queueProposal",
      "outputs": [],
      "stateMutability": "nonpayable",
      "type": "function"
    },
    {
      "inputs": [],
      "name": "renounceOwnership",
      "outputs": [],
      "stateMutability": "nonpayable",
      "type": "function"
    },
    {
      "inputs": [],
      "name": "royaltyBPS",
      "outputs": [
        {
          "internalType": "uint16",
          "name": "",
          "type": "uint16"
        }
      ],
      "stateMutability": "view",
      "type": "function"
    },
    {
      "inputs": [],
      "name": "salesConfig",
      "outputs": [
        {
          "internalType": "uint104",
          "name": "publicSalePrice",
          "type": "uint104"
        },
        {
          "internalType": "uint32",
          "name": "maxSalePurchasePerAddress",
          "type": "uint32"
        },
        {
          "internalType": "uint64",
          "name": "publicSaleStart",
          "type": "uint64"
        },
        {
          "internalType": "uint64",
          "name": "publicSaleEnd",
          "type": "uint64"
        },
        {
          "internalType": "uint64",
          "name": "presaleStart",
          "type": "uint64"
        },
        {
          "internalType": "uint64",
          "name": "presaleEnd",
          "type": "uint64"
        },
        {
          "internalType": "bytes32",
          "name": "presaleMerkleRoot",
          "type": "bytes32"
        }
      ],
      "stateMutability": "view",
      "type": "function"
    },
    {
      "inputs": [],
      "name": "staoGovern",
      "outputs": [
        {
          "internalType": "contract StaoGovernor",
          "name": "",
          "type": "address"
        }
      ],
      "stateMutability": "view",
      "type": "function"
    },
    {
      "inputs": [],
      "name": "staoImplement",
      "outputs": [
        {
          "internalType": "contract StaoImplement",
          "name": "",
          "type": "address"
        }
      ],
      "stateMutability": "view",
      "type": "function"
    },
    {
      "inputs": [],
      "name": "symbol",
      "outputs": [
        {
          "internalType": "string",
          "name": "",
          "type": "string"
        }
      ],
      "stateMutability": "view",
      "type": "function"
    },
    {
      "inputs": [],
      "name": "timeLock",
      "outputs": [
        {
          "internalType": "contract TimeLock",
          "name": "",
          "type": "address"
        }
      ],
      "stateMutability": "view",
      "type": "function"
    },
    {
      "inputs": [],
      "name": "totalSupply",
      "outputs": [
        {
          "internalType": "uint256",
          "name": "",
          "type": "uint256"
        }
      ],
      "stateMutability": "view",
      "type": "function"
    },
    {
      "inputs": [
        {
          "internalType": "address",
          "name": "to",
          "type": "address"
        },
        {
          "internalType": "uint256",
          "name": "amount",
          "type": "uint256"
        }
      ],
      "name": "transfer",
      "outputs": [
        {
          "internalType": "bool",
          "name": "",
          "type": "bool"
        }
      ],
      "stateMutability": "nonpayable",
      "type": "function"
    },
    {
      "inputs": [
        {
          "internalType": "address",
          "name": "from",
          "type": "address"
        },
        {
          "internalType": "address",
          "name": "to",
          "type": "address"
        },
        {
          "internalType": "uint256",
          "name": "amount",
          "type": "uint256"
        }
      ],
      "name": "transferFrom",
      "outputs": [
        {
          "internalType": "bool",
          "name": "",
          "type": "bool"
        }
      ],
      "stateMutability": "nonpayable",
      "type": "function"
    },
    {
      "inputs": [
        {
          "internalType": "address",
          "name": "newOwner",
          "type": "address"
        }
      ],
      "name": "transferOwnership",
      "outputs": [],
      "stateMutability": "nonpayable",
      "type": "function"
    }
  ],
  "bytecode": "0x6101406040523480156200001257600080fd5b506040516200cc293803806200cc298339810160408190526200003591620007a0565b8a80604051806040016040528060018152602001603160f81b8152508d8d6200006d620000676200058560201b60201c565b62000589565b815162000082906004906020850190620005d9565b50805162000098906005906020840190620005d9565b5050825160208085019190912083518483012060e08290526101008190524660a0818152604080517f8b73c3c69bb8fe3d512ecc4cf759cc79239f7b179b0ffacaa9a75d522b39400f81880181905281830187905260608201869052608082019490945230818401528151808203909301835260c0019052805194019390932091935091906080523060c052610120525050601a805460ff1916905550505060168890556017879055601986905560405160609081908790829081906200015f9062000668565b6200016d93929190620008df565b604051809103906000f0801580156200018a573d6000803e3d6000fd5b50600d80546001600160a01b0319166001600160a01b03929092169182179055604051309190889088908890620001c19062000676565b6001600160a01b03958616815294909316602085015260408401919091526060830152608082015260a001604051809103906000f08015801562000209573d6000803e3d6000fd5b50600b60006101000a8154816001600160a01b0302191690836001600160a01b03160217905550828d8d8d604051620002429062000684565b6200025194939291906200093c565b604051809103906000f0801580156200026e573d6000803e3d6000fd5b50600c80546001600160a01b0319166001600160a01b03928316179055600d5460408051638f61f4f560e01b815290519190921691632f2ff15d918391638f61f4f59160048083019260209291908290030181865afa158015620002d6573d6000803e3d6000fd5b505050506040513d601f19601f82011682018060405250810190620002fc919062000997565b600b5460405160e084901b6001600160e01b031916815260048101929092526001600160a01b03166024820152604401600060405180830381600087803b1580156200034757600080fd5b505af11580156200035c573d6000803e3d6000fd5b5050600d54604080516307bd026560e01b815290516001600160a01b039092169350632f2ff15d925083916307bd0265916004808201926020929091908290030181865afa158015620003b3573d6000803e3d6000fd5b505050506040513d601f19601f82011682018060405250810190620003d9919062000997565b600b5460405160e084901b6001600160e01b031916815260048101929092526001600160a01b03166024820152604401600060405180830381600087803b1580156200042457600080fd5b505af115801562000439573d6000803e3d6000fd5b5050600d546040805163034f3dbf60e21b815290516001600160a01b03909216935063d547741f92508391630d3cf6fc916004808201926020929091908290030181865afa15801562000490573d6000803e3d6000fd5b505050506040513d601f19601f82011682018060405250810190620004b6919062000997565b6040516001600160e01b031960e084901b1681526004810191909152306024820152604401600060405180830381600087803b158015620004f657600080fd5b505af11580156200050b573d6000803e3d6000fd5b5050600c54600d5460405163f2fde38b60e01b81526001600160a01b0391821660048201529116925063f2fde38b9150602401600060405180830381600087803b1580156200055957600080fd5b505af11580156200056e573d6000803e3d6000fd5b5050505050505050505050505050505050620009ee565b3390565b600080546001600160a01b038381166001600160a01b0319831681178455604051919092169283917f8be0079c531659141344cd1fd0a4f28419497f9722a3daafe3b4186f6b6457e09190a35050565b828054620005e790620009b1565b90600052602060002090601f0160209004810192826200060b576000855562000656565b82601f106200062657805160ff191683800117855562000656565b8280016001018555821562000656579182015b828111156200065657825182559160200191906001019062000639565b506200066492915062000692565b5090565b61230180620051e383390190565b61458680620074e483390190565b6111bf806200ba6a83390190565b5b8082111562000664576000815560010162000693565b634e487b7160e01b600052604160045260246000fd5b60005b83811015620006dc578181015183820152602001620006c2565b83811115620006ec576000848401525b50505050565b600082601f8301126200070457600080fd5b81516001600160401b0380821115620007215762000721620006a9565b604051601f8301601f19908116603f011681019082821181831017156200074c576200074c620006a9565b816040528381528660208588010111156200076657600080fd5b62000779846020830160208901620006bf565b9695505050505050565b80516001600160a01b03811681146200079b57600080fd5b919050565b60008060008060008060008060008060006101608c8e031215620007c357600080fd5b8b516001600160401b03811115620007da57600080fd5b620007e88e828f01620006f2565b60208e0151909c5090506001600160401b038111156200080757600080fd5b620008158e828f01620006f2565b60408e0151909b5090506001600160401b038111156200083457600080fd5b620008428e828f01620006f2565b99505060608c0151975060808c0151965060a08c0151955060c08c0151945060e08c015193506101008c015192506101208c01519150620008876101408d0162000783565b90509295989b509295989b9093969950565b600081518084526020808501945080840160005b83811015620008d45781516001600160a01b031687529582019590820190600101620008ad565b509495945050505050565b838152606060208201526000620008fa606083018562000899565b828103604084015262000779818562000899565b6000815180845262000928816020860160208601620006bf565b601f01601f19169290920160200192915050565b6001600160a01b038516815260806020820181905260009062000962908301866200090e565b82810360408401526200097681866200090e565b905082810360608401526200098c81856200090e565b979650505050505050565b600060208284031215620009aa57600080fd5b5051919050565b600181811c90821680620009c657607f821691505b60208210811415620009e857634e487b7160e01b600052602260045260246000fd5b50919050565b60805160a05160c05160e05161010051610120516147a562000a3e60003960006132f801526000613347015260006133220152600061327b015260006132a5015260006132cf01526147a56000f3fe6080604052600436106103965760003560e01c80637ecebe00116101dc578063a9059cbb11610102578063d085835a116100a0578063e0f721271161006f578063e0f7212714610b55578063f1127ed814610b6f578063f2fde38b14610bb9578063f4ed0f4614610bd957600080fd5b8063d085835a14610aed578063d505accf14610b0d578063d7bb99ba14610b2d578063dd62ed3e14610b3557600080fd5b8063b51bbbdf116100dc578063b51bbbdf14610a6e578063b9c9d93a14610a83578063c3cda52014610ab8578063cdb9429f14610ad857600080fd5b8063a9059cbb14610a0f578063b011a56014610a2f578063b1a576ad14610a4557600080fd5b806392b113e71161017a5780639ab24eb0116101495780639ab24eb0146109725780639fd22fd114610992578063a457c2d7146109c2578063a883e063146109e257600080fd5b806392b113e7146108f957806394c8f2a81461091d578063957945f31461093d57806395d89b411461095d57600080fd5b806386fa5063116101b657806386fa5063146108855780638ad85f4b1461089b5780638da5cb5b146108bb5780638e539e8c146108d957600080fd5b80637ecebe001461082f57806381b5dc7d1461084f578063840559341461086f57600080fd5b80633a46b1a8116102c15780635c417f251161025f578063715018a61161022e578063715018a6146107b85780637284e416146107cd578063748807ab146107e257806378e178d51461080957600080fd5b80635c417f251461070d5780636bd79cd81461072d5780636fcfff451461074d57806370a082311461078257600080fd5b806349b70ddd1161029b57806349b70ddd146106895780634e417a981461069f578063587cde1e146106b45780635c19a95c146106ed57600080fd5b80633a46b1a8146106205780633ca61ba71461064057806341503bb91461066457600080fd5b80631d2c0b38116103395780633644e515116103085780633644e515146105b6578063373058b8146105cb578063394b3e34146105e0578063395093511461060057600080fd5b80631d2c0b38146104a657806323b872dd1461055a5780632c87f6831461057a578063313ce5671461059a57600080fd5b8063095ea7b311610375578063095ea7b314610414578063130426f214610444578063135d088d1461047c57806318160ddd1461049157600080fd5b8062fbd4fe1461039b57806304c9163c146103bd57806306fdde03146103f2575b600080fd5b3480156103a757600080fd5b506103bb6103b6366004613f33565b610c18565b005b3480156103c957600080fd5b506103df6a736574496d61676555524960a81b81565b6040519081526020015b60405180910390f35b3480156103fe57600080fd5b50610407610ecf565b6040516103e99190613ffa565b34801561042057600080fd5b5061043461042f366004614029565b610f61565b60405190151581526020016103e9565b34801561045057600080fd5b50600c54610464906001600160a01b031681565b6040516001600160a01b0390911681526020016103e9565b34801561048857600080fd5b50610407610f79565b34801561049d57600080fd5b506003546103df565b3480156104b257600080fd5b50600e54600f54601054610508926001600160681b03811692600160681b820463ffffffff1692600160881b9092046001600160401b039081169281831692600160401b8104831692600160801b909104169087565b604080516001600160681b03909816885263ffffffff90961660208801526001600160401b03948516958701959095529183166060860152821660808501521660a083015260c082015260e0016103e9565b34801561056657600080fd5b50610434610575366004614053565b611007565b34801561058657600080fd5b506103bb61059536600461408f565b61102b565b3480156105a657600080fd5b50604051601281526020016103e9565b3480156105c257600080fd5b506103df6112d8565b3480156105d757600080fd5b506103bb6112e7565b3480156105ec57600080fd5b506103df6818dc99585d1953919560ba1b81565b34801561060c57600080fd5b5061043461061b366004614029565b611633565b34801561062c57600080fd5b506103df61063b366004614029565b611655565b34801561064c57600080fd5b506103df6c73657453616c65436f6e66696760981b81565b34801561067057600080fd5b506103df6d73657445646974696f6e53697a6560901b81565b34801561069557600080fd5b506103df60185481565b3480156106ab57600080fd5b506104076116cf565b3480156106c057600080fd5b506104646106cf3660046140dd565b6001600160a01b039081166000908152600860205260409020541690565b3480156106f957600080fd5b506103bb6107083660046140dd565b6116dc565b34801561071957600080fd5b506103bb6107283660046140f8565b6116e9565b34801561073957600080fd5b506103bb610748366004614186565b61197f565b34801561075957600080fd5b5061076d6107683660046140dd565b611ce8565b60405163ffffffff90911681526020016103e9565b34801561078e57600080fd5b506103df61079d3660046140dd565b6001600160a01b031660009081526001602052604090205490565b3480156107c457600080fd5b506103bb611d10565b3480156107d957600080fd5b50610407611d24565b3480156107ee57600080fd5b50601a546107fc9060ff1681565b6040516103e99190614281565b34801561081557600080fd5b506103df6e736574416e696d6174696f6e55524960881b81565b34801561083b57600080fd5b506103df61084a3660046140dd565b611d31565b34801561085b57600080fd5b506103bb61086a36600461408f565b611d4f565b34801561087b57600080fd5b506103df60195481565b34801561089157600080fd5b506103df60175481565b3480156108a757600080fd5b506103bb6108b63660046142a9565b612000565b3480156108c757600080fd5b506000546001600160a01b0316610464565b3480156108e557600080fd5b506103df6108f43660046142d0565b6122b5565b34801561090557600080fd5b506103df6c736574526f79616c747942505360981b81565b34801561092957600080fd5b506103bb6109383660046142e9565b612311565b34801561094957600080fd5b50600b54610464906001600160a01b031681565b34801561096957600080fd5b506104076125d2565b34801561097e57600080fd5b506103df61098d3660046140dd565b6125e1565b34801561099e57600080fd5b506104346109ad3660046140dd565b601b6020526000908152604090205460ff1681565b3480156109ce57600080fd5b506104346109dd366004614029565b612668565b3480156109ee57600080fd5b506103df6109fd3660046142d0565b601c6020526000908152604090205481565b348015610a1b57600080fd5b50610434610a2a366004614029565b6126e3565b348015610a3b57600080fd5b506103df60165481565b348015610a5157600080fd5b506103df711cd95d125cd59bdd1950dbdb5c1b195d195960721b81565b348015610a7a57600080fd5b506104076126f1565b348015610a8f57600080fd5b50600d54610aa590600160e01b900461ffff1681565b60405161ffff90911681526020016103e9565b348015610ac457600080fd5b506103bb610ad3366004614318565b6126fe565b348015610ae457600080fd5b506103bb612834565b348015610af957600080fd5b50600d54610464906001600160a01b031681565b348015610b1957600080fd5b506103bb610b28366004614370565b612a4e565b6103bb612bb2565b348015610b4157600080fd5b506103df610b503660046143da565b612d83565b348015610b6157600080fd5b506013546104349060ff1681565b348015610b7b57600080fd5b50610b8f610b8a36600461440d565b612dae565b60408051825163ffffffff1681526020928301516001600160e01b031692810192909252016103e9565b348015610bc557600080fd5b506103bb610bd43660046140dd565b612e32565b348015610be557600080fd5b50600d54610c0090600160a01b90046001600160401b031681565b6040516001600160401b0390911681526020016103e9565b610c20612ea8565b6006601a5460ff166007811115610c3957610c3961426b565b14610c5f5760405162461bcd60e51b8152600401610c5690614437565b60405180910390fd5b6013805460ff19168415151790558151610c80906014906020850190613dd9565b508051610c94906015906020840190613dd9565b50604080516001808252818301909252600091602080830190803683375050600c5482519293506001600160a01b031691839150600090610cd757610cd761445f565b6001600160a01b039290921660209283029190910190910152604080516001808252818301909252600091816020016020820280368337019050509050600081600081518110610d2957610d2961445f565b6020908102919091010152604080516001808252818301909252600091816020015b6060815260200190600190039081610d4b57905050905060148054610d6f90614475565b80601f0160208091040260200160405190810160405280929190818152602001828054610d9b90614475565b8015610de85780601f10610dbd57610100808354040283529160200191610de8565b820191906000526020600020905b815481529060010190602001808311610dcb57829003601f168201915b505050505081600081518110610e0057610e0061445f565b6020908102919091010152600b54604051633eaf40f160e11b81526000916001600160a01b031690637d5e81e290610e4390879087908790601590600401614573565b6020604051808303816000875af1158015610e62573d6000803e3d6000fd5b505050506040513d601f19601f82011682018060405250810190610e869190614632565b711cd95d125cd59bdd1950dbdb5c1b195d195960721b600052601c6020527f8e39db6e81f74f18ff9a67bc95a6a7827e8f816c8c4b5cbe71439814bc71a56b5550505050505050565b606060048054610ede90614475565b80601f0160208091040260200160405190810160405280929190818152602001828054610f0a90614475565b8015610f575780601f10610f2c57610100808354040283529160200191610f57565b820191906000526020600020905b815481529060010190602001808311610f3a57829003601f168201915b5050505050905090565b600033610f6f818585612f02565b5060019392505050565b60128054610f8690614475565b80601f0160208091040260200160405190810160405280929190818152602001828054610fb290614475565b8015610fff5780601f10610fd457610100808354040283529160200191610fff565b820191906000526020600020905b815481529060010190602001808311610fe257829003601f168201915b505050505081565b600033611015858285613026565b61102085858561309a565b506001949350505050565b611033612ea8565b6005601a5460ff16600781111561104c5761104c61426b565b146110695760405162461bcd60e51b8152600401610c5690614437565b825161107c906012906020860190613dd9565b508151611090906014906020850190613dd9565b5080516110a4906015906020840190613dd9565b50604080516001808252818301909252600091602080830190803683375050600c5482519293506001600160a01b0316918391506000906110e7576110e761445f565b6001600160a01b0392909216602092830291909101909101526040805160018082528183019092526000918160200160208202803683370190505090506000816000815181106111395761113961445f565b6020908102919091010152604080516001808252818301909252600091816020015b606081526020019060019003908161115b5790505090506014805461117f90614475565b80601f01602080910402602001604051908101604052809291908181526020018280546111ab90614475565b80156111f85780601f106111cd576101008083540402835291602001916111f8565b820191906000526020600020905b8154815290600101906020018083116111db57829003601f168201915b5050505050816000815181106112105761121061445f565b6020908102919091010152600b54604051633eaf40f160e11b81526000916001600160a01b031690637d5e81e29061125390879087908790601590600401614573565b6020604051808303816000875af1158015611272573d6000803e3d6000fd5b505050506040513d601f19601f820116820180604052508101906112969190614632565b6a736574496d61676555524960a81b600052601c6020527f29555039e6439fb5b7feed433f6e5fd14bbfbfef7e9cdb526d530cbc568a13fb5550505050505050565b60006112e261326e565b905090565b6112ef612ea8565b604080516001808252818301909252600091602080830190803683375050600c5482519293506001600160a01b0316918391506000906113315761133161445f565b6001600160a01b0392909216602092830291909101909101526040805160018082528183019092526000918160200160208202803683370190505090506000816000815181106113835761138361445f565b6020908102919091010152604080516001808252818301909252600091816020015b60608152602001906001900390816113a5579050509050601480546113c990614475565b80601f01602080910402602001604051908101604052809291908181526020018280546113f590614475565b80156114425780601f1061141757610100808354040283529160200191611442565b820191906000526020600020905b81548152906001019060200180831161142557829003601f168201915b50505050508160008151811061145a5761145a61445f565b6020908102919091010152600b546040516001600160a01b0390911690632656227d9085908590859061148f9060159061464b565b6040519081900381206001600160e01b031960e087901b1682526114b8949392916004016146bd565b6020604051808303816000875af11580156114d7573d6000803e3d6000fd5b505050506040513d601f19601f820116820180604052508101906114fb9190614632565b506001601a5460ff1660078111156115155761151561426b565b141561153557601a80546002919060ff19166001835b0217905550505050565b6002601a5460ff16600781111561154e5761154e61426b565b141561156857601a80546003919060ff191660018361152b565b6003601a5460ff1660078111156115815761158161426b565b141561159b57601a80546004919060ff191660018361152b565b6004601a5460ff1660078111156115b4576115b461426b565b14156115ce57601a80546005919060ff191660018361152b565b6005601a5460ff1660078111156115e7576115e761426b565b141561160157601a80546006919060ff191660018361152b565b6006601a5460ff16600781111561161a5761161a61426b565b141561162e57601a805460ff191660071790555b505050565b600033610f6f8185856116468383612d83565b611650919061471e565b612f02565b60004382106116a65760405162461bcd60e51b815260206004820152601f60248201527f4552433230566f7465733a20626c6f636b206e6f7420796574206d696e6564006044820152606401610c56565b6001600160a01b03831660009081526009602052604090206116c89083613395565b9392505050565b60148054610f8690614475565b6116e63382613452565b50565b6116f1612ea8565b6007601a5460ff16600781111561170a5761170a61426b565b146117275760405162461bcd60e51b8152600401610c5690614437565b815161173a906014906020850190613dd9565b50805161174e906015906020840190613dd9565b50604080516001808252818301909252600091602080830190803683375050600c5482519293506001600160a01b0316918391506000906117915761179161445f565b6001600160a01b0392909216602092830291909101909101526040805160018082528183019092526000918160200160208202803683370190505090506000816000815181106117e3576117e361445f565b6020908102919091010152604080516001808252818301909252600091816020015b60608152602001906001900390816118055790505090506014805461182990614475565b80601f016020809104026020016040519081016040528092919081815260200182805461185590614475565b80156118a25780601f10611877576101008083540402835291602001916118a2565b820191906000526020600020905b81548152906001019060200180831161188557829003601f168201915b5050505050816000815181106118ba576118ba61445f565b6020908102919091010152600b54604051633eaf40f160e11b81526000916001600160a01b031690637d5e81e2906118fd90879087908790601590600401614573565b6020604051808303816000875af115801561191c573d6000803e3d6000fd5b505050506040513d601f19601f820116820180604052508101906119409190614632565b6818dc99585d1953919560ba1b600052601c6020527f952972821a4abb64ca15374c1d839cc8e57f657e39533d155337d624f21082aa55505050505050565b611987612ea8565b6003601a5460ff1660078111156119a0576119a061426b565b146119bd5760405162461bcd60e51b8152600401610c5690614437565b8251600e805460208087015160408801516001600160401b03908116600160881b0267ffffffffffffffff60881b1963ffffffff909316600160681b0270ffffffffffffffffffffffffffffffffff199095166001600160681b03909716969096179390931716939093179091556060850151600f8054608088015160a08901518516600160801b0267ffffffffffffffff60801b19918616600160401b026fffffffffffffffffffffffffffffffff199093169490951693909317179190911691909117905560c08401516010558251611a9e9160149190850190613dd9565b508051611ab2906015906020840190613dd9565b50604080516001808252818301909252600091602080830190803683375050600c5482519293506001600160a01b031691839150600090611af557611af561445f565b6001600160a01b039290921660209283029190910190910152604080516001808252818301909252600091816020016020820280368337019050509050600081600081518110611b4757611b4761445f565b6020908102919091010152604080516001808252818301909252600091816020015b6060815260200190600190039081611b6957905050905060148054611b8d90614475565b80601f0160208091040260200160405190810160405280929190818152602001828054611bb990614475565b8015611c065780601f10611bdb57610100808354040283529160200191611c06565b820191906000526020600020905b815481529060010190602001808311611be957829003601f168201915b505050505081600081518110611c1e57611c1e61445f565b6020908102919091010152600b54604051633eaf40f160e11b81526000916001600160a01b031690637d5e81e290611c6190879087908790601590600401614573565b6020604051808303816000875af1158015611c80573d6000803e3d6000fd5b505050506040513d601f19601f82011682018060405250810190611ca49190614632565b6c73657453616c65436f6e66696760981b600052601c6020527f049bd863f81d2654503d45523e5807cb641d7f323087c6d08a7906ccaaf511c75550505050505050565b6001600160a01b038116600090815260096020526040812054611d0a906134cc565b92915050565b611d18612ea8565b611d226000613535565b565b60158054610f8690614475565b6001600160a01b038116600090815260066020526040812054611d0a565b611d57612ea8565b6004601a5460ff166007811115611d7057611d7061426b565b14611d8d5760405162461bcd60e51b8152600401610c5690614437565b8251611da0906011906020860190613dd9565b508151611db4906014906020850190613dd9565b508051611dc8906015906020840190613dd9565b50604080516001808252818301909252600091602080830190803683375050600c5482519293506001600160a01b031691839150600090611e0b57611e0b61445f565b6001600160a01b039290921660209283029190910190910152604080516001808252818301909252600091816020016020820280368337019050509050600081600081518110611e5d57611e5d61445f565b6020908102919091010152604080516001808252818301909252600091816020015b6060815260200190600190039081611e7f57905050905060148054611ea390614475565b80601f0160208091040260200160405190810160405280929190818152602001828054611ecf90614475565b8015611f1c5780601f10611ef157610100808354040283529160200191611f1c565b820191906000526020600020905b815481529060010190602001808311611eff57829003601f168201915b505050505081600081518110611f3457611f3461445f565b6020908102919091010152600b54604051633eaf40f160e11b81526000916001600160a01b031690637d5e81e290611f7790879087908790601590600401614573565b6020604051808303816000875af1158015611f96573d6000803e3d6000fd5b505050506040513d601f19601f82011682018060405250810190611fba9190614632565b6e736574416e696d6174696f6e55524960881b600052601c6020527fe7d8e555e6c9cb5f44d9d158ee922f67c685c313a2f8f5baa1866429bf5d77ae5550505050505050565b612008612ea8565b6002601a5460ff1660078111156120215761202161426b565b1461203e5760405162461bcd60e51b8152600401610c5690614437565b600d805461ffff60e01b1916600160e01b61ffff861602179055815161206b906014906020850190613dd9565b50805161207f906015906020840190613dd9565b50604080516001808252818301909252600091602080830190803683375050600c5482519293506001600160a01b0316918391506000906120c2576120c261445f565b6001600160a01b0392909216602092830291909101909101526040805160018082528183019092526000918160200160208202803683370190505090506000816000815181106121145761211461445f565b6020908102919091010152604080516001808252818301909252600091816020015b60608152602001906001900390816121365790505090506014805461215a90614475565b80601f016020809104026020016040519081016040528092919081815260200182805461218690614475565b80156121d35780601f106121a8576101008083540402835291602001916121d3565b820191906000526020600020905b8154815290600101906020018083116121b657829003601f168201915b5050505050816000815181106121eb576121eb61445f565b6020908102919091010152600b54604051633eaf40f160e11b81526000916001600160a01b031690637d5e81e29061222e90879087908790601590600401614573565b6020604051808303816000875af115801561224d573d6000803e3d6000fd5b505050506040513d601f19601f820116820180604052508101906122719190614632565b6c736574526f79616c747942505360981b600052601c6020527f756fb0ac0c5a5b3b8861a203bec6475790d6e5987c6bde248f2c610b40f523fc5550505050505050565b60004382106123065760405162461bcd60e51b815260206004820152601f60248201527f4552433230566f7465733a20626c6f636b206e6f7420796574206d696e6564006044820152606401610c56565b611d0a600a83613395565b612319612ea8565b6001601a5460ff1660078111156123325761233261426b565b1461234f5760405162461bcd60e51b8152600401610c5690614437565b600d805467ffffffffffffffff60a01b1916600160a01b6001600160401b038616021790558151612387906014906020850190613dd9565b50805161239b906015906020840190613dd9565b50604080516001808252818301909252600091602080830190803683375050600c5482519293506001600160a01b0316918391506000906123de576123de61445f565b6001600160a01b0392909216602092830291909101909101526040805160018082528183019092526000918160200160208202803683370190505090506000816000815181106124305761243061445f565b6020908102919091010152604080516001808252818301909252600091816020015b60608152602001906001900390816124525790505090506014805461247690614475565b80601f01602080910402602001604051908101604052809291908181526020018280546124a290614475565b80156124ef5780601f106124c4576101008083540402835291602001916124ef565b820191906000526020600020905b8154815290600101906020018083116124d257829003601f168201915b5050505050816000815181106125075761250761445f565b6020908102919091010152600b54604051633eaf40f160e11b81526000916001600160a01b031690637d5e81e29061254a90879087908790601590600401614573565b6020604051808303816000875af1158015612569573d6000803e3d6000fd5b505050506040513d601f19601f8201168201806040525081019061258d9190614632565b6d73657445646974696f6e53697a6560901b600052601c6020527f740f1ca2a3af74c4b2f1f4ee1575eb1ab263160e9a4cdae3f796a0740823228a5550505050505050565b606060058054610ede90614475565b6001600160a01b0381166000908152600960205260408120548015612655576001600160a01b0383166000908152600960205260409020612623600183614736565b815481106126335761263361445f565b60009182526020909120015464010000000090046001600160e01b0316612658565b60005b6001600160e01b03169392505050565b600033816126768286612d83565b9050838110156126d65760405162461bcd60e51b815260206004820152602560248201527f45524332303a2064656372656173656420616c6c6f77616e63652062656c6f77604482015264207a65726f60d81b6064820152608401610c56565b6110208286868403612f02565b600033610f6f81858561309a565b60118054610f8690614475565b8342111561274e5760405162461bcd60e51b815260206004820152601d60248201527f4552433230566f7465733a207369676e617475726520657870697265640000006044820152606401610c56565b604080517fe48329057bfd03d55e49b547132e39cffd9c1820ad7b9d4c5307691425d15adf60208201526001600160a01b0388169181019190915260608101869052608081018590526000906127c8906127c09060a00160405160208183030381529060405280519060200120613585565b8585856135d3565b90506127d3816135fb565b86146128215760405162461bcd60e51b815260206004820152601960248201527f4552433230566f7465733a20696e76616c6964206e6f6e6365000000000000006044820152606401610c56565b61282b8188613452565b50505050505050565b61283c612ea8565b604080516001808252818301909252600091602080830190803683375050600c5482519293506001600160a01b03169183915060009061287e5761287e61445f565b6001600160a01b0392909216602092830291909101909101526040805160018082528183019092526000918160200160208202803683370190505090506000816000815181106128d0576128d061445f565b6020908102919091010152604080516001808252818301909252600091816020015b60608152602001906001900390816128f25790505090506014805461291690614475565b80601f016020809104026020016040519081016040528092919081815260200182805461294290614475565b801561298f5780601f106129645761010080835404028352916020019161298f565b820191906000526020600020905b81548152906001019060200180831161297257829003601f168201915b5050505050816000815181106129a7576129a761445f565b6020908102919091010152600b546040516001600160a01b039091169063160cbed7908590859085906129dc9060159061464b565b6040519081900381206001600160e01b031960e087901b168252612a05949392916004016146bd565b6020604051808303816000875af1158015612a24573d6000803e3d6000fd5b505050506040513d601f19601f82011682018060405250810190612a489190614632565b50505050565b83421115612a9e5760405162461bcd60e51b815260206004820152601d60248201527f45524332305065726d69743a206578706972656420646561646c696e650000006044820152606401610c56565b60007f6e71edae12b1b97f4d1f60370fef10105fa2faae0126114a169c64845d6126c9888888612acd8c6135fb565b6040805160208101969096526001600160a01b0394851690860152929091166060840152608083015260a082015260c0810186905260e0016040516020818303038152906040528051906020012090506000612b2882613585565b90506000612b38828787876135d3565b9050896001600160a01b0316816001600160a01b031614612b9b5760405162461bcd60e51b815260206004820152601e60248201527f45524332305065726d69743a20696e76616c6964207369676e617475726500006044820152606401610c56565b612ba68a8a8a612f02565b50505050505050505050565b6016543414612bf55760405162461bcd60e51b815260206004820152600f60248201526e4e6f742061636365707461626c652160881b6044820152606401610c56565b336000908152601b602052604090205460ff1615612c4b5760405162461bcd60e51b8152602060048201526013602482015272436f6e7472696275746520616c72656164792160681b6044820152606401610c56565b60175460185410612c925760405162461bcd60e51b81526020600482015260116024820152704d617820636f6e7472696275746f72732160781b6044820152606401610c56565b6000601a5460ff166007811115612cab57612cab61426b565b14612ce45760405162461bcd60e51b8152602060048201526009602482015268546f6f206c6174652160b81b6044820152606401610c56565b612cf633670de0b6b3a7640000613623565b612cff336116dc565b336000908152601b60205260408120805460ff191660019081179091556018805491929091612d2f90849061471e565b90915550506017546018541415612d4e57601a805460ff191660011790555b6040513381527f26ca392be7e3d9d0c0634fbc0457971d6ddcd123b3efb5ccaa0af7c33f4225c69060200160405180910390a1565b6001600160a01b03918216600090815260026020908152604080832093909416825291909152205490565b60408051808201909152600080825260208201526001600160a01b0383166000908152600960205260409020805463ffffffff8416908110612df257612df261445f565b60009182526020918290206040805180820190915291015463ffffffff8116825264010000000090046001600160e01b0316918101919091529392505050565b612e3a612ea8565b6001600160a01b038116612e9f5760405162461bcd60e51b815260206004820152602660248201527f4f776e61626c653a206e6577206f776e657220697320746865207a65726f206160448201526564647265737360d01b6064820152608401610c56565b6116e681613535565b6000546001600160a01b03163314611d225760405162461bcd60e51b815260206004820181905260248201527f4f776e61626c653a2063616c6c6572206973206e6f7420746865206f776e65726044820152606401610c56565b6001600160a01b038316612f645760405162461bcd60e51b8152602060048201526024808201527f45524332303a20617070726f76652066726f6d20746865207a65726f206164646044820152637265737360e01b6064820152608401610c56565b6001600160a01b038216612fc55760405162461bcd60e51b815260206004820152602260248201527f45524332303a20617070726f766520746f20746865207a65726f206164647265604482015261737360f01b6064820152608401610c56565b6001600160a01b0383811660008181526002602090815260408083209487168084529482529182902085905590518481527f8c5be1e5ebec7d5bd14f71427d1e84f3dd0314c0f7b2291e5b200ac8c7c3b925910160405180910390a3505050565b60006130328484612d83565b90506000198114612a48578181101561308d5760405162461bcd60e51b815260206004820152601d60248201527f45524332303a20696e73756666696369656e7420616c6c6f77616e63650000006044820152606401610c56565b612a488484848403612f02565b6001600160a01b0383166130fe5760405162461bcd60e51b815260206004820152602560248201527f45524332303a207472616e736665722066726f6d20746865207a65726f206164604482015264647265737360d81b6064820152608401610c56565b6001600160a01b0382166131605760405162461bcd60e51b815260206004820152602360248201527f45524332303a207472616e7366657220746f20746865207a65726f206164647260448201526265737360e81b6064820152608401610c56565b6001600160a01b038316600090815260016020526040902054818110156131d85760405162461bcd60e51b815260206004820152602660248201527f45524332303a207472616e7366657220616d6f756e7420657863656564732062604482015265616c616e636560d01b6064820152608401610c56565b6001600160a01b0380851660009081526001602052604080822085850390559185168152908120805484929061320f90849061471e565b92505081905550826001600160a01b0316846001600160a01b03167fddf252ad1be2c89b69c2b068fc378daa952ba7f163c4a11628f55a4df523b3ef8460405161325b91815260200190565b60405180910390a3612a48848484613631565b6000306001600160a01b037f0000000000000000000000000000000000000000000000000000000000000000161480156132c757507f000000000000000000000000000000000000000000000000000000000000000046145b156132f157507f000000000000000000000000000000000000000000000000000000000000000090565b50604080517f00000000000000000000000000000000000000000000000000000000000000006020808301919091527f0000000000000000000000000000000000000000000000000000000000000000828401527f000000000000000000000000000000000000000000000000000000000000000060608301524660808301523060a0808401919091528351808403909101815260c0909201909252805191012090565b8154600090815b818110156133f95760006133b0828461363c565b9050848682815481106133c5576133c561445f565b60009182526020909120015463ffffffff1611156133e5578092506133f3565b6133f081600161471e565b91505b5061339c565b811561343d578461340b600184614736565b8154811061341b5761341b61445f565b60009182526020909120015464010000000090046001600160e01b0316613440565b60005b6001600160e01b031695945050505050565b6001600160a01b03828116600081815260086020818152604080842080546001845282862054949093528787166001600160a01b03198416811790915590519190951694919391928592917f3134e8a2e6d97e929a7e54011ea5485d7d196dd5f0ba4d4ef95803e8e3fc257f9190a4612a48828483613657565b600063ffffffff8211156135315760405162461bcd60e51b815260206004820152602660248201527f53616665436173743a2076616c756520646f65736e27742066697420696e203360448201526532206269747360d01b6064820152608401610c56565b5090565b600080546001600160a01b038381166001600160a01b0319831681178455604051919092169283917f8be0079c531659141344cd1fd0a4f28419497f9722a3daafe3b4186f6b6457e09190a35050565b6000611d0a61359261326e565b8360405161190160f01b6020820152602281018390526042810182905260009060620160405160208183030381529060405280519060200120905092915050565b60008060006135e487878787613794565b915091506135f181613881565b5095945050505050565b6001600160a01b03811660009081526006602052604090208054600181018255905b50919050565b61362d8282613a3c565b5050565b61162e838383613ac6565b600061364b600284841861474d565b6116c89084841661471e565b816001600160a01b0316836001600160a01b0316141580156136795750600081115b1561162e576001600160a01b03831615613707576001600160a01b038316600090815260096020526040812081906136b490613af885613b04565b91509150846001600160a01b03167fdec2bacdd2f05b59de34da9b523dff8be42e5e38e818c82fdb0bae774387a72483836040516136fc929190918252602082015260400190565b60405180910390a250505b6001600160a01b0382161561162e576001600160a01b0382166000908152600960205260408120819061373d90613c7d85613b04565b91509150836001600160a01b03167fdec2bacdd2f05b59de34da9b523dff8be42e5e38e818c82fdb0bae774387a7248383604051613785929190918252602082015260400190565b60405180910390a25050505050565b6000807f7fffffffffffffffffffffffffffffff5d576e7357a4501ddfe92f46681b20a08311156137cb5750600090506003613878565b8460ff16601b141580156137e357508460ff16601c14155b156137f45750600090506004613878565b6040805160008082526020820180845289905260ff881692820192909252606081018690526080810185905260019060a0016020604051602081039080840390855afa158015613848573d6000803e3d6000fd5b5050604051601f1901519150506001600160a01b03811661387157600060019250925050613878565b9150600090505b94509492505050565b60008160048111156138955761389561426b565b141561389e5750565b60018160048111156138b2576138b261426b565b14156139005760405162461bcd60e51b815260206004820152601860248201527f45434453413a20696e76616c6964207369676e617475726500000000000000006044820152606401610c56565b60028160048111156139145761391461426b565b14156139625760405162461bcd60e51b815260206004820152601f60248201527f45434453413a20696e76616c6964207369676e6174757265206c656e677468006044820152606401610c56565b60038160048111156139765761397661426b565b14156139cf5760405162461bcd60e51b815260206004820152602260248201527f45434453413a20696e76616c6964207369676e6174757265202773272076616c604482015261756560f01b6064820152608401610c56565b60048160048111156139e3576139e361426b565b14156116e65760405162461bcd60e51b815260206004820152602260248201527f45434453413a20696e76616c6964207369676e6174757265202776272076616c604482015261756560f01b6064820152608401610c56565b613a468282613c89565b6003546001600160e01b031015613ab85760405162461bcd60e51b815260206004820152603060248201527f4552433230566f7465733a20746f74616c20737570706c79207269736b73206f60448201526f766572666c6f77696e6720766f74657360801b6064820152608401610c56565b612a48600a613c7d83613b04565b6001600160a01b0383811660009081526008602052604080822054858416835291205461162e92918216911683613657565b60006116c88284614736565b825460009081908015613b4f5785613b1d600183614736565b81548110613b2d57613b2d61445f565b60009182526020909120015464010000000090046001600160e01b0316613b52565b60005b6001600160e01b03169250613b6b83858763ffffffff16565b9150600081118015613ba957504386613b85600184614736565b81548110613b9557613b9561445f565b60009182526020909120015463ffffffff16145b15613c0957613bb782613d70565b86613bc3600184614736565b81548110613bd357613bd361445f565b9060005260206000200160000160046101000a8154816001600160e01b0302191690836001600160e01b03160217905550613c74565b856040518060400160405280613c1e436134cc565b63ffffffff168152602001613c3285613d70565b6001600160e01b0390811690915282546001810184556000938452602093849020835194909301519091166401000000000263ffffffff909316929092179101555b50935093915050565b60006116c8828461471e565b6001600160a01b038216613cdf5760405162461bcd60e51b815260206004820152601f60248201527f45524332303a206d696e7420746f20746865207a65726f2061646472657373006044820152606401610c56565b8060036000828254613cf1919061471e565b90915550506001600160a01b03821660009081526001602052604081208054839290613d1e90849061471e565b90915550506040518181526001600160a01b038316906000907fddf252ad1be2c89b69c2b068fc378daa952ba7f163c4a11628f55a4df523b3ef9060200160405180910390a361362d60008383613631565b60006001600160e01b038211156135315760405162461bcd60e51b815260206004820152602760248201527f53616665436173743a2076616c756520646f65736e27742066697420696e20326044820152663234206269747360c81b6064820152608401610c56565b828054613de590614475565b90600052602060002090601f016020900481019282613e075760008555613e4d565b82601f10613e2057805160ff1916838001178555613e4d565b82800160010185558215613e4d579182015b82811115613e4d578251825591602001919060010190613e32565b506135319291505b808211156135315760008155600101613e55565b634e487b7160e01b600052604160045260246000fd5b60405160e081016001600160401b0381118282101715613ea157613ea1613e69565b60405290565b600082601f830112613eb857600080fd5b81356001600160401b0380821115613ed257613ed2613e69565b604051601f8301601f19908116603f01168101908282118183101715613efa57613efa613e69565b81604052838152866020858801011115613f1357600080fd5b836020870160208301376000602085830101528094505050505092915050565b600080600060608486031215613f4857600080fd5b83358015158114613f5857600080fd5b925060208401356001600160401b0380821115613f7457600080fd5b613f8087838801613ea7565b93506040860135915080821115613f9657600080fd5b50613fa386828701613ea7565b9150509250925092565b6000815180845260005b81811015613fd357602081850181015186830182015201613fb7565b81811115613fe5576000602083870101525b50601f01601f19169290920160200192915050565b6020815260006116c86020830184613fad565b80356001600160a01b038116811461402457600080fd5b919050565b6000806040838503121561403c57600080fd5b6140458361400d565b946020939093013593505050565b60008060006060848603121561406857600080fd5b6140718461400d565b925061407f6020850161400d565b9150604084013590509250925092565b6000806000606084860312156140a457600080fd5b83356001600160401b03808211156140bb57600080fd5b6140c787838801613ea7565b94506020860135915080821115613f7457600080fd5b6000602082840312156140ef57600080fd5b6116c88261400d565b6000806040838503121561410b57600080fd5b82356001600160401b038082111561412257600080fd5b61412e86838701613ea7565b9350602085013591508082111561414457600080fd5b5061415185828601613ea7565b9150509250929050565b803563ffffffff8116811461402457600080fd5b80356001600160401b038116811461402457600080fd5b600080600083850361012081121561419d57600080fd5b60e08112156141ab57600080fd5b506141b4613e7f565b84356001600160681b03811681146141cb57600080fd5b81526141d96020860161415b565b60208201526141ea6040860161416f565b60408201526141fb6060860161416f565b606082015261420c6080860161416f565b608082015261421d60a0860161416f565b60a082015260c08581013590820152925060e08401356001600160401b038082111561424857600080fd5b61425487838801613ea7565b9350610100860135915080821115613f9657600080fd5b634e487b7160e01b600052602160045260246000fd5b60208101600883106142a357634e487b7160e01b600052602160045260246000fd5b91905290565b6000806000606084860312156142be57600080fd5b833561ffff81168114613f5857600080fd5b6000602082840312156142e257600080fd5b5035919050565b6000806000606084860312156142fe57600080fd5b613f588461416f565b803560ff8116811461402457600080fd5b60008060008060008060c0878903121561433157600080fd5b61433a8761400d565b9550602087013594506040870135935061435660608801614307565b92506080870135915060a087013590509295509295509295565b600080600080600080600060e0888a03121561438b57600080fd5b6143948861400d565b96506143a26020890161400d565b955060408801359450606088013593506143be60808901614307565b925060a0880135915060c0880135905092959891949750929550565b600080604083850312156143ed57600080fd5b6143f68361400d565b91506144046020840161400d565b90509250929050565b6000806040838503121561442057600080fd5b6144298361400d565b91506144046020840161415b565b6020808252600e908201526d4e6f7420746869732074696d652160901b604082015260600190565b634e487b7160e01b600052603260045260246000fd5b600181811c9082168061448957607f821691505b6020821081141561361d57634e487b7160e01b600052602260045260246000fd5b600081518084526020808501945080840160005b838110156144e35781516001600160a01b0316875295820195908201906001016144be565b509495945050505050565b600081518084526020808501945080840160005b838110156144e357815187529582019590820190600101614502565b600081518084526020808501808196508360051b8101915082860160005b85811015614566578284038952614554848351613fad565b9885019893509084019060010161453c565b5091979650505050505050565b60808152600061458660808301876144aa565b60208382038185015261459982886144ee565b915083820360408501526145ad828761451e565b91508382036060850152600085546145c481614475565b808552600182811680156145df57600181146145f357614621565b60ff19841687870152604087019450614621565b896000528560002060005b848110156146195781548982018901529083019087016145fe565b880187019550505b50929b9a5050505050505050505050565b60006020828403121561464457600080fd5b5051919050565b600080835461465981614475565b600182811680156146715760018114614682576146b1565b60ff198416875282870194506146b1565b8760005260208060002060005b858110156146a85781548a82015290840190820161468f565b50505082870194505b50929695505050505050565b6080815260006146d060808301876144aa565b82810360208401526146e281876144ee565b905082810360408401526146f6818661451e565b91505082606083015295945050505050565b634e487b7160e01b600052601160045260246000fd5b6000821982111561473157614731614708565b500190565b60008282101561474857614748614708565b500390565b60008261476a57634e487b7160e01b600052601260045260246000fd5b50049056fea26469706673582212202c919ca8079449381186a3b576757385e529d7b8793590e34b5ac07a7ca3d48a64736f6c634300080a003360806040523480156200001157600080fd5b5060405162002301380380620023018339810160408190526200003491620003fd565b82828262000052600080516020620022818339815191528062000222565b6200007c600080516020620022a18339815191526000805160206200228183398151915262000222565b620000a6600080516020620022c18339815191526000805160206200228183398151915262000222565b620000d0600080516020620022e18339815191526000805160206200228183398151915262000222565b620000eb60008051602062002281833981519152336200026d565b6200010660008051602062002281833981519152306200026d565b60005b82518110156200018c5762000150600080516020620022a18339815191528483815181106200013c576200013c62000471565b60200260200101516200026d60201b60201c565b62000179600080516020620022e18339815191528483815181106200013c576200013c62000471565b620001848162000487565b905062000109565b5060005b8151811015620001d657620001c3600080516020620022c18339815191528383815181106200013c576200013c62000471565b620001ce8162000487565b905062000190565b5060028390556040805160008152602081018590527f11c24f4ead16507c69ac467fbd5e4eed5fb5c699626d2cc6d66421df253886d5910160405180910390a1505050505050620004b1565b600082815260208190526040808220600101805490849055905190918391839186917fbd79b86ffe0ab8e8776151514217cd7cacd52c909f66475c3af44e129f0b00ff9190a4505050565b6200027982826200027d565b5050565b6000828152602081815260408083206001600160a01b038516845290915290205460ff1662000279576000828152602081815260408083206001600160a01b03851684529091529020805460ff19166001179055620002d93390565b6001600160a01b0316816001600160a01b0316837f2f8788117e7eff1d82e926ec794901d17c78024a50270940304540a733656f0d60405160405180910390a45050565b634e487b7160e01b600052604160045260246000fd5b80516001600160a01b03811681146200034b57600080fd5b919050565b600082601f8301126200036257600080fd5b815160206001600160401b03808311156200038157620003816200031d565b8260051b604051601f19603f83011681018181108482111715620003a957620003a96200031d565b604052938452858101830193838101925087851115620003c857600080fd5b83870191505b84821015620003f257620003e28262000333565b83529183019190830190620003ce565b979650505050505050565b6000806000606084860312156200041357600080fd5b835160208501519093506001600160401b03808211156200043357600080fd5b620004418783880162000350565b935060408601519150808211156200045857600080fd5b50620004678682870162000350565b9150509250925092565b634e487b7160e01b600052603260045260246000fd5b6000600019821415620004aa57634e487b7160e01b600052601160045260246000fd5b5060010190565b611dc080620004c16000396000f3fe6080604052600436106101bb5760003560e01c80638065657f116100ec578063bc197c811161008a578063d547741f11610064578063d547741f14610582578063e38335e5146105a2578063f23a6e61146105b5578063f27a0c92146105e157600080fd5b8063bc197c8114610509578063c4d252f514610535578063d45c44351461055557600080fd5b806391d14854116100c657806391d1485414610480578063a217fddf146104a0578063b08e51c0146104b5578063b1c5f427146104e957600080fd5b80638065657f1461040c5780638f2a0bb01461042c5780638f61f4f51461044c57600080fd5b8063248a9ca31161015957806331d507501161013357806331d507501461038c57806336568abe146103ac578063584b153e146103cc57806364d62353146103ec57600080fd5b8063248a9ca31461030b5780632ab0f5291461033b5780632f2ff15d1461036c57600080fd5b80630d3cf6fc116101955780630d3cf6fc14610260578063134008d31461029457806313bc9f20146102a7578063150b7a02146102c757600080fd5b806301d5062a146101c757806301ffc9a7146101e957806307bd02651461021e57600080fd5b366101c257005b600080fd5b3480156101d357600080fd5b506101e76101e23660046113b9565b6105f6565b005b3480156101f557600080fd5b5061020961020436600461142d565b61068b565b60405190151581526020015b60405180910390f35b34801561022a57600080fd5b506102527fd8aa0f3194971a2a116679f7c2090f6939c8d4e01a2a8d7e41d55e5351469e6381565b604051908152602001610215565b34801561026c57600080fd5b506102527f5f58e3a2316349923ce3780f8d587db2d72378aed66a8261c916544fa6846ca581565b6101e76102a2366004611457565b6106b6565b3480156102b357600080fd5b506102096102c23660046114c2565b61076b565b3480156102d357600080fd5b506102f26102e2366004611590565b630a85bd0160e11b949350505050565b6040516001600160e01b03199091168152602001610215565b34801561031757600080fd5b506102526103263660046114c2565b60009081526020819052604090206001015490565b34801561034757600080fd5b506102096103563660046114c2565b6000908152600160208190526040909120541490565b34801561037857600080fd5b506101e76103873660046115f7565b610791565b34801561039857600080fd5b506102096103a73660046114c2565b6107bb565b3480156103b857600080fd5b506101e76103c73660046115f7565b6107d4565b3480156103d857600080fd5b506102096103e73660046114c2565b610857565b3480156103f857600080fd5b506101e76104073660046114c2565b61086d565b34801561041857600080fd5b50610252610427366004611457565b610911565b34801561043857600080fd5b506101e7610447366004611667565b610950565b34801561045857600080fd5b506102527fb09aa5aeb3702cfd50b6b62bc4532604938f21248a27a1d5ca736082b6819cc181565b34801561048c57600080fd5b5061020961049b3660046115f7565b610aa2565b3480156104ac57600080fd5b50610252600081565b3480156104c157600080fd5b506102527ffd643c72710c63c0180259aba6b2d05451e3591a24e58b62239378085726f78381565b3480156104f557600080fd5b50610252610504366004611718565b610acb565b34801561051557600080fd5b506102f261052436600461183f565b63bc197c8160e01b95945050505050565b34801561054157600080fd5b506101e76105503660046114c2565b610b10565b34801561056157600080fd5b506102526105703660046114c2565b60009081526001602052604090205490565b34801561058e57600080fd5b506101e761059d3660046115f7565b610be5565b6101e76105b0366004611718565b610c0a565b3480156105c157600080fd5b506102f26105d03660046118e8565b63f23a6e6160e01b95945050505050565b3480156105ed57600080fd5b50600254610252565b7fb09aa5aeb3702cfd50b6b62bc4532604938f21248a27a1d5ca736082b6819cc161062081610d94565b6000610630898989898989610911565b905061063c8184610da1565b6000817f4cf4410cc57040e44862ef0f45f3dd5a5e02db8eb8add648d4b0e236f1d07dca8b8b8b8b8b8a60405161067896959493929190611975565b60405180910390a3505050505050505050565b60006001600160e01b03198216630271189760e51b14806106b057506106b082610e90565b92915050565b7fd8aa0f3194971a2a116679f7c2090f6939c8d4e01a2a8d7e41d55e5351469e636106e2816000610aa2565b6106f0576106f08133610ec5565b6000610700888888888888610911565b905061070c8185610f29565b61071888888888610fc5565b6000817fc2617efa69bab66782fa219543714338489c4e9e178271560a91b82c3f612b588a8a8a8a60405161075094939291906119b2565b60405180910390a361076181611098565b5050505050505050565b60008181526001602052604081205460018111801561078a5750428111155b9392505050565b6000828152602081905260409020600101546107ac81610d94565b6107b683836110d1565b505050565b60008181526001602052604081205481905b1192915050565b6001600160a01b03811633146108495760405162461bcd60e51b815260206004820152602f60248201527f416363657373436f6e74726f6c3a2063616e206f6e6c792072656e6f756e636560448201526e103937b632b9903337b91039b2b63360891b60648201526084015b60405180910390fd5b6108538282611155565b5050565b60008181526001602081905260408220546107cd565b3330146108d05760405162461bcd60e51b815260206004820152602b60248201527f54696d656c6f636b436f6e74726f6c6c65723a2063616c6c6572206d7573742060448201526a62652074696d656c6f636b60a81b6064820152608401610840565b60025460408051918252602082018390527f11c24f4ead16507c69ac467fbd5e4eed5fb5c699626d2cc6d66421df253886d5910160405180910390a1600255565b600086868686868660405160200161092e96959493929190611975565b6040516020818303038152906040528051906020012090509695505050505050565b7fb09aa5aeb3702cfd50b6b62bc4532604938f21248a27a1d5ca736082b6819cc161097a81610d94565b8887146109995760405162461bcd60e51b8152600401610840906119e4565b8885146109b85760405162461bcd60e51b8152600401610840906119e4565b60006109ca8b8b8b8b8b8b8b8b610acb565b90506109d68184610da1565b60005b8a811015610a945780827f4cf4410cc57040e44862ef0f45f3dd5a5e02db8eb8add648d4b0e236f1d07dca8e8e85818110610a1657610a16611a27565b9050602002016020810190610a2b9190611a3d565b8d8d86818110610a3d57610a3d611a27565b905060200201358c8c87818110610a5657610a56611a27565b9050602002810190610a689190611a58565b8c8b604051610a7c96959493929190611975565b60405180910390a3610a8d81611ab4565b90506109d9565b505050505050505050505050565b6000918252602082815260408084206001600160a01b0393909316845291905290205460ff1690565b60008888888888888888604051602001610aec989796959493929190611b5f565b60405160208183030381529060405280519060200120905098975050505050505050565b7ffd643c72710c63c0180259aba6b2d05451e3591a24e58b62239378085726f783610b3a81610d94565b610b4382610857565b610ba95760405162461bcd60e51b815260206004820152603160248201527f54696d656c6f636b436f6e74726f6c6c65723a206f7065726174696f6e2063616044820152701b9b9bdd0818994818d85b98d95b1b1959607a1b6064820152608401610840565b6000828152600160205260408082208290555183917fbaa1eb22f2a492ba1a5fea61b8df4d27c6c8b5f3971e63bb58fa14ff72eedb7091a25050565b600082815260208190526040902060010154610c0081610d94565b6107b68383611155565b7fd8aa0f3194971a2a116679f7c2090f6939c8d4e01a2a8d7e41d55e5351469e63610c36816000610aa2565b610c4457610c448133610ec5565b878614610c635760405162461bcd60e51b8152600401610840906119e4565b878414610c825760405162461bcd60e51b8152600401610840906119e4565b6000610c948a8a8a8a8a8a8a8a610acb565b9050610ca08185610f29565b60005b89811015610d7e5760008b8b83818110610cbf57610cbf611a27565b9050602002016020810190610cd49190611a3d565b905060008a8a84818110610cea57610cea611a27565b9050602002013590503660008a8a86818110610d0857610d08611a27565b9050602002810190610d1a9190611a58565b91509150610d2a84848484610fc5565b84867fc2617efa69bab66782fa219543714338489c4e9e178271560a91b82c3f612b5886868686604051610d6194939291906119b2565b60405180910390a35050505080610d7790611ab4565b9050610ca3565b50610d8881611098565b50505050505050505050565b610d9e8133610ec5565b50565b610daa826107bb565b15610e0f5760405162461bcd60e51b815260206004820152602f60248201527f54696d656c6f636b436f6e74726f6c6c65723a206f7065726174696f6e20616c60448201526e1c9958591e481cd8da19591d5b1959608a1b6064820152608401610840565b600254811015610e705760405162461bcd60e51b815260206004820152602660248201527f54696d656c6f636b436f6e74726f6c6c65723a20696e73756666696369656e746044820152652064656c617960d01b6064820152608401610840565b610e7a8142611c0a565b6000928352600160205260409092209190915550565b60006001600160e01b03198216637965db0b60e01b14806106b057506301ffc9a760e01b6001600160e01b03198316146106b0565b610ecf8282610aa2565b61085357610ee7816001600160a01b031660146111ba565b610ef28360206111ba565b604051602001610f03929190611c52565b60408051601f198184030181529082905262461bcd60e51b825261084091600401611cc7565b610f328261076b565b610f4e5760405162461bcd60e51b815260040161084090611cfa565b801580610f6a5750600081815260016020819052604090912054145b6108535760405162461bcd60e51b815260206004820152602660248201527f54696d656c6f636b436f6e74726f6c6c65723a206d697373696e6720646570656044820152656e64656e637960d01b6064820152608401610840565b6000846001600160a01b0316848484604051610fe2929190611d44565b60006040518083038185875af1925050503d806000811461101f576040519150601f19603f3d011682016040523d82523d6000602084013e611024565b606091505b50509050806110915760405162461bcd60e51b815260206004820152603360248201527f54696d656c6f636b436f6e74726f6c6c65723a20756e6465726c79696e6720746044820152721c985b9cd858dd1a5bdb881c995d995c9d1959606a1b6064820152608401610840565b5050505050565b6110a18161076b565b6110bd5760405162461bcd60e51b815260040161084090611cfa565b600090815260016020819052604090912055565b6110db8282610aa2565b610853576000828152602081815260408083206001600160a01b03851684529091529020805460ff191660011790556111113390565b6001600160a01b0316816001600160a01b0316837f2f8788117e7eff1d82e926ec794901d17c78024a50270940304540a733656f0d60405160405180910390a45050565b61115f8282610aa2565b15610853576000828152602081815260408083206001600160a01b0385168085529252808320805460ff1916905551339285917ff6391f5c32d9c69d2a47ea670b442974b53935d1edc7fd64eb21e047a839171b9190a45050565b606060006111c9836002611d54565b6111d4906002611c0a565b6001600160401b038111156111eb576111eb6114db565b6040519080825280601f01601f191660200182016040528015611215576020820181803683370190505b509050600360fc1b8160008151811061123057611230611a27565b60200101906001600160f81b031916908160001a905350600f60fb1b8160018151811061125f5761125f611a27565b60200101906001600160f81b031916908160001a9053506000611283846002611d54565b61128e906001611c0a565b90505b6001811115611306576f181899199a1a9b1b9c1cb0b131b232b360811b85600f16601081106112c2576112c2611a27565b1a60f81b8282815181106112d8576112d8611a27565b60200101906001600160f81b031916908160001a90535060049490941c936112ff81611d73565b9050611291565b50831561078a5760405162461bcd60e51b815260206004820181905260248201527f537472696e67733a20686578206c656e67746820696e73756666696369656e746044820152606401610840565b80356001600160a01b038116811461136c57600080fd5b919050565b60008083601f84011261138357600080fd5b5081356001600160401b0381111561139a57600080fd5b6020830191508360208285010111156113b257600080fd5b9250929050565b600080600080600080600060c0888a0312156113d457600080fd5b6113dd88611355565b96506020880135955060408801356001600160401b038111156113ff57600080fd5b61140b8a828b01611371565b989b979a50986060810135976080820135975060a09091013595509350505050565b60006020828403121561143f57600080fd5b81356001600160e01b03198116811461078a57600080fd5b60008060008060008060a0878903121561147057600080fd5b61147987611355565b95506020870135945060408701356001600160401b0381111561149b57600080fd5b6114a789828a01611371565b979a9699509760608101359660809091013595509350505050565b6000602082840312156114d457600080fd5b5035919050565b634e487b7160e01b600052604160045260246000fd5b604051601f8201601f191681016001600160401b0381118282101715611519576115196114db565b604052919050565b600082601f83011261153257600080fd5b81356001600160401b0381111561154b5761154b6114db565b61155e601f8201601f19166020016114f1565b81815284602083860101111561157357600080fd5b816020850160208301376000918101602001919091529392505050565b600080600080608085870312156115a657600080fd5b6115af85611355565b93506115bd60208601611355565b92506040850135915060608501356001600160401b038111156115df57600080fd5b6115eb87828801611521565b91505092959194509250565b6000806040838503121561160a57600080fd5b8235915061161a60208401611355565b90509250929050565b60008083601f84011261163557600080fd5b5081356001600160401b0381111561164c57600080fd5b6020830191508360208260051b85010111156113b257600080fd5b600080600080600080600080600060c08a8c03121561168557600080fd5b89356001600160401b038082111561169c57600080fd5b6116a88d838e01611623565b909b50995060208c01359150808211156116c157600080fd5b6116cd8d838e01611623565b909950975060408c01359150808211156116e657600080fd5b506116f38c828d01611623565b9a9d999c50979a969997986060880135976080810135975060a0013595509350505050565b60008060008060008060008060a0898b03121561173457600080fd5b88356001600160401b038082111561174b57600080fd5b6117578c838d01611623565b909a50985060208b013591508082111561177057600080fd5b61177c8c838d01611623565b909850965060408b013591508082111561179557600080fd5b506117a28b828c01611623565b999c989b509699959896976060870135966080013595509350505050565b600082601f8301126117d157600080fd5b813560206001600160401b038211156117ec576117ec6114db565b8160051b6117fb8282016114f1565b928352848101820192828101908785111561181557600080fd5b83870192505b848310156118345782358252918301919083019061181b565b979650505050505050565b600080600080600060a0868803121561185757600080fd5b61186086611355565b945061186e60208701611355565b935060408601356001600160401b038082111561188a57600080fd5b61189689838a016117c0565b945060608801359150808211156118ac57600080fd5b6118b889838a016117c0565b935060808801359150808211156118ce57600080fd5b506118db88828901611521565b9150509295509295909350565b600080600080600060a0868803121561190057600080fd5b61190986611355565b945061191760208701611355565b9350604086013592506060860135915060808601356001600160401b0381111561194057600080fd5b6118db88828901611521565b81835281816020850137506000828201602090810191909152601f909101601f19169091010190565b60018060a01b038716815285602082015260a06040820152600061199d60a08301868861194c565b60608301949094525060800152949350505050565b60018060a01b03851681528360208201526060604082015260006119da60608301848661194c565b9695505050505050565b60208082526023908201527f54696d656c6f636b436f6e74726f6c6c65723a206c656e677468206d69736d616040820152620e8c6d60eb1b606082015260800190565b634e487b7160e01b600052603260045260246000fd5b600060208284031215611a4f57600080fd5b61078a82611355565b6000808335601e19843603018112611a6f57600080fd5b8301803591506001600160401b03821115611a8957600080fd5b6020019150368190038213156113b257600080fd5b634e487b7160e01b600052601160045260246000fd5b6000600019821415611ac857611ac8611a9e565b5060010190565b81835260006020808501808196508560051b810191508460005b87811015611b525782840389528135601e19883603018112611b0a57600080fd5b870180356001600160401b03811115611b2257600080fd5b803603891315611b3157600080fd5b611b3e868289850161194c565b9a87019a9550505090840190600101611ae9565b5091979650505050505050565b60a0808252810188905260008960c08301825b8b811015611ba0576001600160a01b03611b8b84611355565b16825260209283019290910190600101611b72565b5083810360208501528881526001600160fb1b03891115611bc057600080fd5b8860051b9150818a602083013781810191505060208101600081526020848303016040850152611bf181888a611acf565b6060850196909652505050608001529695505050505050565b60008219821115611c1d57611c1d611a9e565b500190565b60005b83811015611c3d578181015183820152602001611c25565b83811115611c4c576000848401525b50505050565b7f416363657373436f6e74726f6c3a206163636f756e7420000000000000000000815260008351611c8a816017850160208801611c22565b7001034b99036b4b9b9b4b733903937b6329607d1b6017918401918201528351611cbb816028840160208801611c22565b01602801949350505050565b6020815260008251806020840152611ce6816040850160208701611c22565b601f01601f19169190910160400192915050565b6020808252602a908201527f54696d656c6f636b436f6e74726f6c6c65723a206f7065726174696f6e206973604082015269206e6f7420726561647960b01b606082015260800190565b8183823760009101908152919050565b6000816000190483118215151615611d6e57611d6e611a9e565b500290565b600081611d8257611d82611a9e565b50600019019056fea264697066735822122060a589b48d1bf77af667f4b9cd7f90bfffae4fa1df83a9e4dc2b5987a8b1530f64736f6c634300080a00335f58e3a2316349923ce3780f8d587db2d72378aed66a8261c916544fa6846ca5b09aa5aeb3702cfd50b6b62bc4532604938f21248a27a1d5ca736082b6819cc1d8aa0f3194971a2a116679f7c2090f6939c8d4e01a2a8d7e41d55e5351469e63fd643c72710c63c0180259aba6b2d05451e3591a24e58b62239378085726f7836101606040523480156200001257600080fd5b506040516200458638038062004586833981016040819052620000359162000811565b838386838560006040518060400160405280601081526020016f11dbdd995c9b9bdc90dbdb9d1c9858dd60821b81525080620000766200017360201b60201c565b815160208084019190912082518383012060e08290526101008190524660a0818152604080517f8b73c3c69bb8fe3d512ecc4cf759cc79239f7b179b0ffacaa9a75d522b39400f81880181905281830187905260608201869052608082019490945230818401528151808203909301835260c00190528051940193909320919290916080523060c05261012052505082516200011c92506000915060208401906200075c565b506200012a9050836200018e565b6200013582620001cf565b620001408162000276565b5050506001600160a01b0316610140526200015b81620002b7565b5062000167816200042f565b505050505050620008e2565b6040805180820190915260018152603160f81b602082015290565b60045460408051918252602082018390527fc565b045403dc03c2eea82b81a0465edad9e2e7fc4d97e11421c209da93d7a93910160405180910390a1600455565b60008111620002355760405162461bcd60e51b815260206004820152602760248201527f476f7665726e6f7253657474696e67733a20766f74696e6720706572696f6420604482015266746f6f206c6f7760c81b60648201526084015b60405180910390fd5b60055460408051918252602082018390527f7e3f7f0708a84de9203036abaa450dccc85ad5ff52f78c170f3edb55cf5e8828910160405180910390a1600555565b60065460408051918252602082018390527fccb45da8d5717e6c4544694297c4ba5cf151d455c9bb0ed4fc7a38411bc05461910160405180910390a1600655565b60648111156200033c5760405162461bcd60e51b815260206004820152604360248201527f476f7665726e6f72566f74657351756f72756d4672616374696f6e3a2071756f60448201527f72756d4e756d657261746f72206f7665722071756f72756d44656e6f6d696e616064820152623a37b960e91b608482015260a4016200022c565b60006200034862000498565b905080158015906200035a5750600954155b15620003d55760096000016040518060400160405280600063ffffffff1681526020016200039384620004c760201b620014651760201c565b6001600160e01b0390811690915282546001810184556000938452602093849020835194909301519091166401000000000263ffffffff909316929092179101555b620003f08260096200053660201b620014d21790919060201c565b505060408051828152602081018490527f0553476bf02ef2726e8ce5ced78d63e26e602e4a2257b1f559418e24b4633997910160405180910390a15050565b600a54604080516001600160a01b03928316815291831660208301527f08f74ea46ef7894f65eabfb5e6e695de773a000b47c529ab559178069b226401910160405180910390a1600a80546001600160a01b0319166001600160a01b0392909216919091179055565b60095460009015620004c057620004bb60096200069260201b620015fd1760201c565b905090565b5060085490565b60006001600160e01b03821115620005325760405162461bcd60e51b815260206004820152602760248201527f53616665436173743a2076616c756520646f65736e27742066697420696e20326044820152663234206269747360c81b60648201526084016200022c565b5090565b8154600090819081620005498662000692565b90506000821180156200058d575043866200056660018562000869565b815481106200057957620005796200088f565b60009182526020909120015463ffffffff16145b156200060157620005a985620004c760201b620014651760201c565b86620005b760018562000869565b81548110620005ca57620005ca6200088f565b9060005260206000200160000160046101000a8154816001600160e01b0302191690836001600160e01b0316021790555062000689565b8560000160405180604001604052806200062643620006f560201b620016591760201c565b63ffffffff1681526020016200064788620004c760201b620014651760201c565b6001600160e01b0390811690915282546001810184556000938452602093849020835194909301519091166401000000000263ffffffff909316929092179101555b95939450505050565b80546000908015620006e25782620006ac60018362000869565b81548110620006bf57620006bf6200088f565b60009182526020909120015464010000000090046001600160e01b0316620006e5565b60005b6001600160e01b03169392505050565b600063ffffffff821115620005325760405162461bcd60e51b815260206004820152602660248201527f53616665436173743a2076616c756520646f65736e27742066697420696e203360448201526532206269747360d01b60648201526084016200022c565b8280546200076a90620008a5565b90600052602060002090601f0160209004810192826200078e5760008555620007d9565b82601f10620007a957805160ff1916838001178555620007d9565b82800160010185558215620007d9579182015b82811115620007d9578251825591602001919060010190620007bc565b50620005329291505b80821115620005325760008155600101620007e2565b6001600160a01b03811681146200080e57600080fd5b50565b600080600080600060a086880312156200082a57600080fd5b85516200083781620007f8565b60208701519095506200084a81620007f8565b6040870151606088015160809098015196999198509695945092505050565b6000828210156200088a57634e487b7160e01b600052601160045260246000fd5b500390565b634e487b7160e01b600052603260045260246000fd5b600181811c90821680620008ba57607f821691505b60208210811415620008dc57634e487b7160e01b600052602260045260246000fd5b50919050565b60805160a05160c05160e051610100516101205161014051613c3b6200094b600039600081816108760152818161210e0152612330015260006124ac015260006124fb015260006124d60152600061242f01526000612459015260006124830152613c3b6000f3fe60806040526004361061024a5760003560e01c80637b3c71d311610139578063c28bc2fa116100b6578063ea0217cf1161007a578063ea0217cf146107b8578063eb9019d4146107d8578063ece40cc1146107f8578063f23a6e6114610818578063f8ce560a14610844578063fc0c546a1461086457600080fd5b8063c28bc2fa146106cc578063c59057e4146106ec578063d33219b41461070c578063dd4e2ba51461073e578063deaaa7cc1461078457600080fd5b8063a890c910116100fd578063a890c9101461062b578063ab58fb8e1461064b578063b58131b01461066b578063bc197c8114610680578063c01f9e37146106ac57600080fd5b80637b3c71d3146105a25780637d5e81e2146105c257806397c3d334146105e25780639a802a6d146105f6578063a7713a701461061657600080fd5b80633932abb1116101c757806354fd4d501161018b57806354fd4d50146104f857806356781388146105225780635f398a141461054257806360c4247f1461056257806370b0f6601461058257600080fd5b80633932abb1146103f75780633bccf4fd1461040c5780633e4f49e61461042c5780634385963214610459578063544ffc9c146104a357600080fd5b8063150b7a021161020e578063150b7a021461032c578063160cbed7146103705780632656227d146103905780632d63f693146103a35780632fe3e261146103c357600080fd5b806301ffc9a71461027257806302a251a3146102a757806303420181146102ca57806306f3f9e6146102ea57806306fdde031461030a57600080fd5b3661026d5730610258610898565b6001600160a01b03161461026b57600080fd5b005b600080fd5b34801561027e57600080fd5b5061029261028d366004612d45565b6108b1565b60405190151581526020015b60405180910390f35b3480156102b357600080fd5b506102bc6108c2565b60405190815260200161029e565b3480156102d657600080fd5b506102bc6102e5366004612e83565b6108cd565b3480156102f657600080fd5b5061026b610305366004612f29565b6109c5565b34801561031657600080fd5b5061031f610a5d565b60405161029e9190612f9e565b34801561033857600080fd5b50610357610347366004612fc6565b630a85bd0160e11b949350505050565b6040516001600160e01b0319909116815260200161029e565b34801561037c57600080fd5b506102bc61038b3660046131a2565b610aef565b6102bc61039e3660046131a2565b610cef565b3480156103af57600080fd5b506102bc6103be366004612f29565b610ddc565b3480156103cf57600080fd5b506102bc7fb3b3f3b703cd84ce352197dcff232b1b5d3cfb2025ce47cf04742d0651f1af8881565b34801561040357600080fd5b506102bc610e13565b34801561041857600080fd5b506102bc610427366004613231565b610e1e565b34801561043857600080fd5b5061044c610447366004612f29565b610e94565b60405161029e9190613295565b34801561046557600080fd5b506102926104743660046132bd565b60008281526007602090815260408083206001600160a01b038516845260030190915290205460ff1692915050565b3480156104af57600080fd5b506104dd6104be366004612f29565b6000908152600760205260409020805460018201546002909201549092565b6040805193845260208401929092529082015260600161029e565b34801561050457600080fd5b506040805180820190915260018152603160f81b602082015261031f565b34801561052e57600080fd5b506102bc61053d3660046132ed565b610e9f565b34801561054e57600080fd5b506102bc61055d366004613319565b610ec8565b34801561056e57600080fd5b506102bc61057d366004612f29565b610f12565b34801561058e57600080fd5b5061026b61059d366004612f29565b610fa8565b3480156105ae57600080fd5b506102bc6105bd36600461339c565b611034565b3480156105ce57600080fd5b506102bc6105dd3660046133f5565b611086565b3480156105ee57600080fd5b5060646102bc565b34801561060257600080fd5b506102bc6106113660046134a9565b61109d565b34801561062257600080fd5b506102bc6110b4565b34801561063757600080fd5b5061026b610646366004613501565b6110d0565b34801561065757600080fd5b506102bc610666366004612f29565b61115c565b34801561067757600080fd5b506102bc6111f6565b34801561068c57600080fd5b5061035761069b36600461351e565b63bc197c8160e01b95945050505050565b3480156106b857600080fd5b506102bc6106c7366004612f29565b611201565b3480156106d857600080fd5b5061026b6106e73660046135b1565b611230565b3480156106f857600080fd5b506102bc6107073660046131a2565b6112fc565b34801561071857600080fd5b50600a546001600160a01b03165b6040516001600160a01b03909116815260200161029e565b34801561074a57600080fd5b506040805180820190915260208082527f737570706f72743d627261766f2671756f72756d3d666f722c6162737461696e9082015261031f565b34801561079057600080fd5b506102bc7f150214d74d59b7d1e90c73fc22ef3d991dd0a76b046543d4d80ab92d2a50328f81565b3480156107c457600080fd5b5061026b6107d3366004612f29565b611336565b3480156107e457600080fd5b506102bc6107f33660046135f4565b6113c2565b34801561080457600080fd5b5061026b610813366004612f29565b6113ce565b34801561082457600080fd5b50610357610833366004613620565b63f23a6e6160e01b95945050505050565b34801561085057600080fd5b506102bc61085f366004612f29565b61145a565b34801561087057600080fd5b506107267f000000000000000000000000000000000000000000000000000000000000000081565b60006108ac600a546001600160a01b031690565b905090565b60006108bc826116be565b92915050565b60006108ac60055490565b6000806109716109697fb3b3f3b703cd84ce352197dcff232b1b5d3cfb2025ce47cf04742d0651f1af888c8c8c8c604051610909929190613688565b60405180910390208b8051906020012060405160200161094e959493929190948552602085019390935260ff9190911660408401526060830152608082015260a00190565b604051602081830303815290604052805190602001206116e3565b868686611731565b90506109b78a828b8b8b8080601f0160208091040260200160405190810160405280939291908181526020018383808284376000920191909152508d925061174f915050565b9a9950505050505050505050565b6109cd610898565b6001600160a01b0316336001600160a01b031614610a065760405162461bcd60e51b81526004016109fd90613698565b60405180910390fd5b30610a0f610898565b6001600160a01b031614610a515760008036604051610a2f929190613688565b604051809103902090505b80610a4560026118b1565b14610a4f57610a3a565b505b610a5a81611930565b50565b606060008054610a6c906136cf565b80601f0160208091040260200160405190810160405280929190818152602001828054610a98906136cf565b8015610ae55780601f10610aba57610100808354040283529160200191610ae5565b820191906000526020600020905b815481529060010190602001808311610ac857829003601f168201915b5050505050905090565b600080610afe868686866112fc565b90506004610b0b82610e94565b6007811115610b1c57610b1c61327f565b14610b395760405162461bcd60e51b81526004016109fd9061370a565b600a546040805163793d064960e11b815290516000926001600160a01b03169163f27a0c929160048083019260209291908290030181865afa158015610b83573d6000803e3d6000fd5b505050506040513d601f19601f82011682018060405250810190610ba7919061374b565b600a5460405163b1c5f42760e01b81529192506001600160a01b03169063b1c5f42790610be1908a908a908a906000908b9060040161382d565b602060405180830381865afa158015610bfe573d6000803e3d6000fd5b505050506040513d601f19601f82011682018060405250810190610c22919061374b565b6000838152600b602052604080822092909255600a5491516308f2a0bb60e41b81526001600160a01b0390921691638f2a0bb091610c6d918b918b918b91908b90899060040161387b565b600060405180830381600087803b158015610c8757600080fd5b505af1158015610c9b573d6000803e3d6000fd5b505050507f9a2e42fd6722813d69113e7d0079d3d940171428df7373df9c7f7617cfda2892828242610ccd91906138e9565b6040805192835260208301919091520160405180910390a15095945050505050565b600080610cfe868686866112fc565b90506000610d0b82610e94565b90506004816007811115610d2157610d2161327f565b1480610d3e57506005816007811115610d3c57610d3c61327f565b145b610d5a5760405162461bcd60e51b81526004016109fd9061370a565b600082815260016020818152604092839020600201805460ff191690921790915590518381527f712ae1383f79ac853f8d882153778e0260ef8f03b504e2866e0593e04d2b291f910160405180910390a1610db88288888888611a7d565b610dc58288888888611b1f565b610dd28288888888611b2c565b5095945050505050565b60008181526001602090815260408083208151928301909152546001600160401b0316908190525b6001600160401b031692915050565b60006108ac60045490565b604080517f150214d74d59b7d1e90c73fc22ef3d991dd0a76b046543d4d80ab92d2a50328f602082015290810186905260ff851660608201526000908190610e6c906109699060800161094e565b9050610e8987828860405180602001604052806000815250611b65565b979650505050505050565b60006108bc82611b88565b600080339050610ec084828560405180602001604052806000815250611b65565b949350505050565b600080339050610e8987828888888080601f0160208091040260200160405190810160405280939291908181526020018383808284376000920191909152508a925061174f915050565b60095460009080610f27575050600854919050565b60006009610f36600184613901565b81548110610f4657610f46613918565b60009182526020918290206040805180820190915291015463ffffffff81168083526401000000009091046001600160e01b03169282019290925291508410610f9d57602001516001600160e01b03169392505050565b610ec0600985611cd2565b610fb0610898565b6001600160a01b0316336001600160a01b031614610fe05760405162461bcd60e51b81526004016109fd90613698565b30610fe9610898565b6001600160a01b03161461102b5760008036604051611009929190613688565b604051809103902090505b8061101f60026118b1565b1461102957611014565b505b610a5a81611de1565b60008033905061107c86828787878080601f016020809104026020016040519081016040528093929190818152602001838380828437600092019190915250611b6592505050565b9695505050505050565b600061109485858585611e22565b95945050505050565b60006110aa8484846120e5565b90505b9392505050565b600954600090156110c9576108ac60096115fd565b5060085490565b6110d8610898565b6001600160a01b0316336001600160a01b0316146111085760405162461bcd60e51b81526004016109fd90613698565b30611111610898565b6001600160a01b0316146111535760008036604051611131929190613688565b604051809103902090505b8061114760026118b1565b146111515761113c565b505b610a5a8161217b565b600a546000828152600b602052604080822054905163d45c443560e01b81526004810191909152909182916001600160a01b039091169063d45c443590602401602060405180830381865afa1580156111b9573d6000803e3d6000fd5b505050506040513d601f19601f820116820180604052508101906111dd919061374b565b9050806001146111ed57806110ad565b60009392505050565b60006108ac60065490565b60008181526001602081815260408084208151928301909152909101546001600160401b031690819052610e04565b611238610898565b6001600160a01b0316336001600160a01b0316146112685760405162461bcd60e51b81526004016109fd90613698565b30611271610898565b6001600160a01b0316146112b35760008036604051611291929190613688565b604051809103902090505b806112a760026118b1565b146112b15761129c565b505b6112f58483838080601f0160208091040260200160405190810160405280939291908181526020018383808284376000920191909152508892506121e4915050565b5050505050565b600084848484604051602001611315949392919061392e565b60408051601f19818403018152919052805160209091012095945050505050565b61133e610898565b6001600160a01b0316336001600160a01b03161461136e5760405162461bcd60e51b81526004016109fd90613698565b30611377610898565b6001600160a01b0316146113b95760008036604051611397929190613688565b604051809103902090505b806113ad60026118b1565b146113b7576113a2565b505b610a5a8161220a565b60006110ad83836122ab565b6113d6610898565b6001600160a01b0316336001600160a01b0316146114065760405162461bcd60e51b81526004016109fd90613698565b3061140f610898565b6001600160a01b031614611451576000803660405161142f929190613688565b604051809103902090505b8061144560026118b1565b1461144f5761143a565b505b610a5a816122cc565b60006108bc8261230d565b60006001600160e01b038211156114ce5760405162461bcd60e51b815260206004820152602760248201527f53616665436173743a2076616c756520646f65736e27742066697420696e20326044820152663234206269747360c81b60648201526084016109fd565b5090565b81546000908190816114e3866115fd565b9050600082118015611521575043866114fd600185613901565b8154811061150d5761150d613918565b60009182526020909120015463ffffffff16145b156115815761152f85611465565b8661153b600185613901565b8154811061154b5761154b613918565b9060005260206000200160000160046101000a8154816001600160e01b0302191690836001600160e01b031602179055506115ef565b85600001604051806040016040528061159943611659565b63ffffffff1681526020016115ad88611465565b6001600160e01b0390811690915282546001810184556000938452602093849020835194909301519091166401000000000263ffffffff909316929092179101555b9250839150505b9250929050565b805460009080156116465782611614600183613901565b8154811061162457611624613918565b60009182526020909120015464010000000090046001600160e01b0316611649565b60005b6001600160e01b03169392505050565b600063ffffffff8211156114ce5760405162461bcd60e51b815260206004820152602660248201527f53616665436173743a2076616c756520646f65736e27742066697420696e203360448201526532206269747360d01b60648201526084016109fd565b60006001600160e01b03198216636e665ced60e01b14806108bc57506108bc826123b7565b60006108bc6116f0612422565b8360405161190160f01b6020820152602281018390526042810182905260009060620160405160208183030381529060405280519060200120905092915050565b600080600061174287878787612549565b91509150610dd281612636565b600085815260016020819052604082209061176988610e94565b600781111561177a5761177a61327f565b146117d35760405162461bcd60e51b815260206004820152602360248201527f476f7665726e6f723a20766f7465206e6f742063757272656e746c792061637460448201526269766560e81b60648201526084016109fd565b604080516020810190915281546001600160401b0316908190526000906117fc908890866120e5565b905061180b88888884886127f1565b835161185d57866001600160a01b03167fb8e138887d0aa13bab447e82de9d5c1777041ecd21ca36ba824ff1e6c07ddda4898884896040516118509493929190613979565b60405180910390a2610e89565b866001600160a01b03167fe2babfbac5889a709b63bb7f598b324e08bc5a4fb9ec647fb3cbc9ec07eb8712898884898960405161189e9594939291906139a1565b60405180910390a2979650505050505050565b60006118cc8254600f81810b600160801b909204900b131590565b156118ea57604051631ed9509560e11b815260040160405180910390fd5b508054600f0b6000818152600180840160205260408220805492905583546fffffffffffffffffffffffffffffffff191692016001600160801b03169190911790915590565b60648111156119b35760405162461bcd60e51b815260206004820152604360248201527f476f7665726e6f72566f74657351756f72756d4672616374696f6e3a2071756f60448201527f72756d4e756d657261746f72206f7665722071756f72756d44656e6f6d696e616064820152623a37b960e91b608482015260a4016109fd565b60006119bd6110b4565b905080158015906119ce5750600954155b15611a33576040805180820190915260008152600990602081016119f184611465565b6001600160e01b0390811690915282546001810184556000938452602093849020835194909301519091166401000000000263ffffffff909316929092179101555b611a3e6009836114d2565b505060408051828152602081018490527f0553476bf02ef2726e8ce5ced78d63e26e602e4a2257b1f559418e24b4633997910160405180910390a15050565b30611a86610898565b6001600160a01b0316146112f55760005b8451811015611b1757306001600160a01b0316858281518110611abc57611abc613918565b60200260200101516001600160a01b03161415611b0757611b07838281518110611ae857611ae8613918565b602002602001015180519060200120600261297090919063ffffffff16565b611b10816139e7565b9050611a97565b505050505050565b6112f585858585856129ac565b30611b35610898565b6001600160a01b0316146112f557600254600f81810b600160801b909204900b13156112f55760006002556112f5565b600061109485858585611b8360408051602081019091526000815290565b61174f565b600080611b9483612a20565b90506004816007811115611baa57611baa61327f565b14611bb55792915050565b6000838152600b602052604090205480611bd0575092915050565b600a54604051632ab0f52960e01b8152600481018390526001600160a01b0390911690632ab0f52990602401602060405180830381865afa158015611c19573d6000803e3d6000fd5b505050506040513d601f19601f82011682018060405250810190611c3d9190613a02565b15611c4c575060079392505050565b600a54604051632c258a9f60e11b8152600481018390526001600160a01b039091169063584b153e90602401602060405180830381865afa158015611c95573d6000803e3d6000fd5b505050506040513d601f19601f82011682018060405250810190611cb99190613a02565b15611cc8575060059392505050565b5060029392505050565b6000438210611d235760405162461bcd60e51b815260206004820181905260248201527f436865636b706f696e74733a20626c6f636b206e6f7420796574206d696e656460448201526064016109fd565b825460005b81811015611d88576000611d3c8284612b2c565b905084866000018281548110611d5457611d54613918565b60009182526020909120015463ffffffff161115611d7457809250611d82565b611d7f8160016138e9565b91505b50611d28565b8115611dcc5784611d9a600184613901565b81548110611daa57611daa613918565b60009182526020909120015464010000000090046001600160e01b0316611dcf565b60005b6001600160e01b031695945050505050565b60045460408051918252602082018390527fc565b045403dc03c2eea82b81a0465edad9e2e7fc4d97e11421c209da93d7a93910160405180910390a1600455565b6000611e2c6111f6565b611e3b336107f3600143613901565b1015611ea35760405162461bcd60e51b815260206004820152603160248201527f476f7665726e6f723a2070726f706f73657220766f7465732062656c6f7720706044820152701c9bdc1bdcd85b081d1a1c995cda1bdb19607a1b60648201526084016109fd565b6000611eb886868686805190602001206112fc565b90508451865114611edb5760405162461bcd60e51b81526004016109fd90613a24565b8351865114611efc5760405162461bcd60e51b81526004016109fd90613a24565b6000865111611f4d5760405162461bcd60e51b815260206004820152601860248201527f476f7665726e6f723a20656d7074792070726f706f73616c000000000000000060448201526064016109fd565b600081815260016020908152604091829020825191820190925281546001600160401b03169081905215611fcd5760405162461bcd60e51b815260206004820152602160248201527f476f7665726e6f723a2070726f706f73616c20616c72656164792065786973746044820152607360f81b60648201526084016109fd565b6000611fdf611fda610e13565b612b47565b611fe843612b47565b611ff29190613a65565b90506000612001611fda6108c2565b61200b9083613a65565b835467ffffffffffffffff19166001600160401b038416178455905060018301805467ffffffffffffffff19166001600160401b0383161790557f7d84a6263ae0d98d3329bd7b46bb4e8d6f98cd35a7adb45c274c8b7fd5ebd5e084338b8b8d516001600160401b0381111561208357612083612dc6565b6040519080825280602002602001820160405280156120b657816020015b60608152602001906001900390816120a15790505b508c88888e6040516120d099989796959493929190613a90565b60405180910390a15091979650505050505050565b604051630748d63560e31b81526001600160a01b038481166004830152602482018490526000917f000000000000000000000000000000000000000000000000000000000000000090911690633a46b1a890604401602060405180830381865afa158015612157573d6000803e3d6000fd5b505050506040513d601f19601f820116820180604052508101906110aa919061374b565b600a54604080516001600160a01b03928316815291831660208301527f08f74ea46ef7894f65eabfb5e6e695de773a000b47c529ab559178069b226401910160405180910390a1600a80546001600160a01b0319166001600160a01b0392909216919091179055565b60606110aa848484604051806060016040528060298152602001613bdd60299139612baf565b6000811161226a5760405162461bcd60e51b815260206004820152602760248201527f476f7665726e6f7253657474696e67733a20766f74696e6720706572696f6420604482015266746f6f206c6f7760c81b60648201526084016109fd565b60055460408051918252602082018390527f7e3f7f0708a84de9203036abaa450dccc85ad5ff52f78c170f3edb55cf5e8828910160405180910390a1600555565b60006110ad83836122c760408051602081019091526000815290565b6120e5565b60065460408051918252602082018390527fccb45da8d5717e6c4544694297c4ba5cf151d455c9bb0ed4fc7a38411bc05461910160405180910390a1600655565b6000606461231a83610f12565b604051632394e7a360e21b8152600481018590527f00000000000000000000000000000000000000000000000000000000000000006001600160a01b031690638e539e8c90602401602060405180830381865afa15801561237f573d6000803e3d6000fd5b505050506040513d601f19601f820116820180604052508101906123a3919061374b565b6123ad9190613b7f565b6108bc9190613b9e565b60006001600160e01b0319821663bf26d89760e01b14806123e857506001600160e01b031982166379dd796f60e01b145b8061240357506001600160e01b03198216630271189760e51b145b806108bc57506301ffc9a760e01b6001600160e01b03198316146108bc565b6000306001600160a01b037f00000000000000000000000000000000000000000000000000000000000000001614801561247b57507f000000000000000000000000000000000000000000000000000000000000000046145b156124a557507f000000000000000000000000000000000000000000000000000000000000000090565b50604080517f00000000000000000000000000000000000000000000000000000000000000006020808301919091527f0000000000000000000000000000000000000000000000000000000000000000828401527f000000000000000000000000000000000000000000000000000000000000000060608301524660808301523060a0808401919091528351808403909101815260c0909201909252805191012090565b6000807f7fffffffffffffffffffffffffffffff5d576e7357a4501ddfe92f46681b20a0831115612580575060009050600361262d565b8460ff16601b1415801561259857508460ff16601c14155b156125a9575060009050600461262d565b6040805160008082526020820180845289905260ff881692820192909252606081018690526080810185905260019060a0016020604051602081039080840390855afa1580156125fd573d6000803e3d6000fd5b5050604051601f1901519150506001600160a01b0381166126265760006001925092505061262d565b9150600090505b94509492505050565b600081600481111561264a5761264a61327f565b14156126535750565b60018160048111156126675761266761327f565b14156126b55760405162461bcd60e51b815260206004820152601860248201527f45434453413a20696e76616c6964207369676e6174757265000000000000000060448201526064016109fd565b60028160048111156126c9576126c961327f565b14156127175760405162461bcd60e51b815260206004820152601f60248201527f45434453413a20696e76616c6964207369676e6174757265206c656e6774680060448201526064016109fd565b600381600481111561272b5761272b61327f565b14156127845760405162461bcd60e51b815260206004820152602260248201527f45434453413a20696e76616c6964207369676e6174757265202773272076616c604482015261756560f01b60648201526084016109fd565b60048160048111156127985761279861327f565b1415610a5a5760405162461bcd60e51b815260206004820152602260248201527f45434453413a20696e76616c6964207369676e6174757265202776272076616c604482015261756560f01b60648201526084016109fd565b60008581526007602090815260408083206001600160a01b0388168452600381019092529091205460ff16156128795760405162461bcd60e51b815260206004820152602760248201527f476f7665726e6f72566f74696e6753696d706c653a20766f746520616c726561604482015266191e4818d85cdd60ca1b60648201526084016109fd565b6001600160a01b03851660009081526003820160205260408120805460ff1916600117905560ff168460ff1614156128ca57828160000160008282546128bf91906138e9565b90915550611b179050565b60ff8416600114156128ea57828160010160008282546128bf91906138e9565b60ff84166002141561290a57828160020160008282546128bf91906138e9565b60405162461bcd60e51b815260206004820152603560248201527f476f7665726e6f72566f74696e6753696d706c653a20696e76616c69642076616044820152746c756520666f7220656e756d20566f74655479706560581b60648201526084016109fd565b8154600160801b90819004600f0b6000818152600180860160205260409091209390935583546001600160801b03908116939091011602179055565b600a5460405163e38335e560e01b81526001600160a01b039091169063e38335e59034906129e790889088908890600090899060040161382d565b6000604051808303818588803b158015612a0057600080fd5b505af1158015612a14573d6000803e3d6000fd5b50505050505050505050565b6000818152600160205260408120600281015460ff1615612a445750600792915050565b6002810154610100900460ff1615612a5f5750600292915050565b6000612a6a84610ddc565b905080612ab95760405162461bcd60e51b815260206004820152601d60248201527f476f7665726e6f723a20756e6b6e6f776e2070726f706f73616c20696400000060448201526064016109fd565b438110612aca575060009392505050565b6000612ad585611201565b9050438110612ae957506001949350505050565b612af285612cd5565b8015612b11575060008581526007602052604090208054600190910154115b15612b2157506004949350505050565b506003949350505050565b6000612b3b6002848418613b9e565b6110ad908484166138e9565b60006001600160401b038211156114ce5760405162461bcd60e51b815260206004820152602660248201527f53616665436173743a2076616c756520646f65736e27742066697420696e203660448201526534206269747360d01b60648201526084016109fd565b606082471015612c105760405162461bcd60e51b815260206004820152602660248201527f416464726573733a20696e73756666696369656e742062616c616e636520666f6044820152651c8818d85b1b60d21b60648201526084016109fd565b6001600160a01b0385163b612c675760405162461bcd60e51b815260206004820152601d60248201527f416464726573733a2063616c6c20746f206e6f6e2d636f6e747261637400000060448201526064016109fd565b600080866001600160a01b03168587604051612c839190613bc0565b60006040518083038185875af1925050503d8060008114612cc0576040519150601f19603f3d011682016040523d82523d6000602084013e612cc5565b606091505b5091509150610e89828286612d0c565b600081815260076020526040812060028101546001820154612cf791906138e9565b612d0361085f85610ddc565b11159392505050565b60608315612d1b5750816110ad565b825115612d2b5782518084602001fd5b8160405162461bcd60e51b81526004016109fd9190612f9e565b600060208284031215612d5757600080fd5b81356001600160e01b0319811681146110ad57600080fd5b803560ff81168114612d8057600080fd5b919050565b60008083601f840112612d9757600080fd5b5081356001600160401b03811115612dae57600080fd5b6020830191508360208285010111156115f657600080fd5b634e487b7160e01b600052604160045260246000fd5b604051601f8201601f191681016001600160401b0381118282101715612e0457612e04612dc6565b604052919050565b60006001600160401b03831115612e2557612e25612dc6565b612e38601f8401601f1916602001612ddc565b9050828152838383011115612e4c57600080fd5b828260208301376000602084830101529392505050565b600082601f830112612e7457600080fd5b6110ad83833560208501612e0c565b60008060008060008060008060e0898b031215612e9f57600080fd5b88359750612eaf60208a01612d6f565b965060408901356001600160401b0380821115612ecb57600080fd5b612ed78c838d01612d85565b909850965060608b0135915080821115612ef057600080fd5b50612efd8b828c01612e63565b945050612f0c60808a01612d6f565b925060a0890135915060c089013590509295985092959890939650565b600060208284031215612f3b57600080fd5b5035919050565b60005b83811015612f5d578181015183820152602001612f45565b83811115612f6c576000848401525b50505050565b60008151808452612f8a816020860160208601612f42565b601f01601f19169290920160200192915050565b6020815260006110ad6020830184612f72565b6001600160a01b0381168114610a5a57600080fd5b60008060008060808587031215612fdc57600080fd5b8435612fe781612fb1565b93506020850135612ff781612fb1565b92506040850135915060608501356001600160401b0381111561301957600080fd5b61302587828801612e63565b91505092959194509250565b60006001600160401b0382111561304a5761304a612dc6565b5060051b60200190565b600082601f83011261306557600080fd5b8135602061307a61307583613031565b612ddc565b82815260059290921b8401810191818101908684111561309957600080fd5b8286015b848110156130bd5780356130b081612fb1565b835291830191830161309d565b509695505050505050565b600082601f8301126130d957600080fd5b813560206130e961307583613031565b82815260059290921b8401810191818101908684111561310857600080fd5b8286015b848110156130bd578035835291830191830161310c565b600082601f83011261313457600080fd5b8135602061314461307583613031565b82815260059290921b8401810191818101908684111561316357600080fd5b8286015b848110156130bd5780356001600160401b038111156131865760008081fd5b6131948986838b0101612e63565b845250918301918301613167565b600080600080608085870312156131b857600080fd5b84356001600160401b03808211156131cf57600080fd5b6131db88838901613054565b955060208701359150808211156131f157600080fd5b6131fd888389016130c8565b9450604087013591508082111561321357600080fd5b5061322087828801613123565b949793965093946060013593505050565b600080600080600060a0868803121561324957600080fd5b8535945061325960208701612d6f565b935061326760408701612d6f565b94979396509394606081013594506080013592915050565b634e487b7160e01b600052602160045260246000fd5b60208101600883106132b757634e487b7160e01b600052602160045260246000fd5b91905290565b600080604083850312156132d057600080fd5b8235915060208301356132e281612fb1565b809150509250929050565b6000806040838503121561330057600080fd5b8235915061331060208401612d6f565b90509250929050565b60008060008060006080868803121561333157600080fd5b8535945061334160208701612d6f565b935060408601356001600160401b038082111561335d57600080fd5b61336989838a01612d85565b9095509350606088013591508082111561338257600080fd5b5061338f88828901612e63565b9150509295509295909350565b600080600080606085870312156133b257600080fd5b843593506133c260208601612d6f565b925060408501356001600160401b038111156133dd57600080fd5b6133e987828801612d85565b95989497509550505050565b6000806000806080858703121561340b57600080fd5b84356001600160401b038082111561342257600080fd5b61342e88838901613054565b9550602087013591508082111561344457600080fd5b613450888389016130c8565b9450604087013591508082111561346657600080fd5b61347288838901613123565b9350606087013591508082111561348857600080fd5b508501601f8101871361349a57600080fd5b61302587823560208401612e0c565b6000806000606084860312156134be57600080fd5b83356134c981612fb1565b92506020840135915060408401356001600160401b038111156134eb57600080fd5b6134f786828701612e63565b9150509250925092565b60006020828403121561351357600080fd5b81356110ad81612fb1565b600080600080600060a0868803121561353657600080fd5b853561354181612fb1565b9450602086013561355181612fb1565b935060408601356001600160401b038082111561356d57600080fd5b61357989838a016130c8565b9450606088013591508082111561358f57600080fd5b61359b89838a016130c8565b9350608088013591508082111561338257600080fd5b600080600080606085870312156135c757600080fd5b84356135d281612fb1565b93506020850135925060408501356001600160401b038111156133dd57600080fd5b6000806040838503121561360757600080fd5b823561361281612fb1565b946020939093013593505050565b600080600080600060a0868803121561363857600080fd5b853561364381612fb1565b9450602086013561365381612fb1565b9350604086013592506060860135915060808601356001600160401b0381111561367c57600080fd5b61338f88828901612e63565b8183823760009101908152919050565b60208082526018908201527f476f7665726e6f723a206f6e6c79476f7665726e616e63650000000000000000604082015260600190565b600181811c908216806136e357607f821691505b6020821081141561370457634e487b7160e01b600052602260045260246000fd5b50919050565b60208082526021908201527f476f7665726e6f723a2070726f706f73616c206e6f74207375636365737366756040820152601b60fa1b606082015260800190565b60006020828403121561375d57600080fd5b5051919050565b600081518084526020808501945080840160005b8381101561379d5781516001600160a01b031687529582019590820190600101613778565b509495945050505050565b600081518084526020808501945080840160005b8381101561379d578151875295820195908201906001016137bc565b600081518084526020808501808196508360051b8101915082860160005b8581101561382057828403895261380e848351612f72565b988501989350908401906001016137f6565b5091979650505050505050565b60a08152600061384060a0830188613764565b828103602084015261385281886137a8565b9050828103604084015261386681876137d8565b60608401959095525050608001529392505050565b60c08152600061388e60c0830189613764565b82810360208401526138a081896137a8565b905082810360408401526138b481886137d8565b60608401969096525050608081019290925260a0909101529392505050565b634e487b7160e01b600052601160045260246000fd5b600082198211156138fc576138fc6138d3565b500190565b600082821015613913576139136138d3565b500390565b634e487b7160e01b600052603260045260246000fd5b6080815260006139416080830187613764565b828103602084015261395381876137a8565b9050828103604084015261396781866137d8565b91505082606083015295945050505050565b84815260ff8416602082015282604082015260806060820152600061107c6080830184612f72565b85815260ff8516602082015283604082015260a0606082015260006139c960a0830185612f72565b82810360808401526139db8185612f72565b98975050505050505050565b60006000198214156139fb576139fb6138d3565b5060010190565b600060208284031215613a1457600080fd5b815180151581146110ad57600080fd5b60208082526021908201527f476f7665726e6f723a20696e76616c69642070726f706f73616c206c656e67746040820152600d60fb1b606082015260800190565b60006001600160401b03808316818516808303821115613a8757613a876138d3565b01949350505050565b60006101208b8352602060018060a01b038c1681850152816040850152613ab98285018c613764565b91508382036060850152613acd828b6137a8565b915083820360808501528189518084528284019150828160051b850101838c0160005b83811015613b1e57601f19878403018552613b0c838351612f72565b94860194925090850190600101613af0565b505086810360a0880152613b32818c6137d8565b945050505050613b4d60c08401876001600160401b03169052565b6001600160401b03851660e0840152828103610100840152613b6f8185612f72565b9c9b505050505050505050505050565b6000816000190483118215151615613b9957613b996138d3565b500290565b600082613bbb57634e487b7160e01b600052601260045260246000fd5b500490565b60008251613bd2818460208701612f42565b919091019291505056fe416464726573733a206c6f772d6c6576656c2063616c6c20776974682076616c7565206661696c6564a264697066735822122096400133ece5dc7717f8079d3a2d8ede42124ae414d443f9a2b63c57ced2408b64736f6c634300080a003360806040523480156200001157600080fd5b50604051620011bf380380620011bf83398101604081905262000034916200029d565b6200003f33620000da565b600180546001600160a01b03199081166001600160a01b0387161790915560058054600160501b600160f01b031916336a0100000000000000000000810291909117909155600680549092161790558251620000a39060039060208601906200012a565b508151620000b99060049060208501906200012a565b508051620000cf90600a9060208401906200012a565b50505050506200038c565b600080546001600160a01b038381166001600160a01b0319831681178455604051919092169283917f8be0079c531659141344cd1fd0a4f28419497f9722a3daafe3b4186f6b6457e09190a35050565b82805462000138906200034f565b90600052602060002090601f0160209004810192826200015c5760008555620001a7565b82601f106200017757805160ff1916838001178555620001a7565b82800160010185558215620001a7579182015b82811115620001a75782518255916020019190600101906200018a565b50620001b5929150620001b9565b5090565b5b80821115620001b55760008155600101620001ba565b634e487b7160e01b600052604160045260246000fd5b600082601f830112620001f857600080fd5b81516001600160401b0380821115620002155762000215620001d0565b604051601f8301601f19908116603f01168101908282118183101715620002405762000240620001d0565b816040528381526020925086838588010111156200025d57600080fd5b600091505b8382101562000281578582018301518183018401529082019062000262565b83821115620002935760008385830101525b9695505050505050565b60008060008060808587031215620002b457600080fd5b84516001600160a01b0381168114620002cc57600080fd5b60208601519094506001600160401b0380821115620002ea57600080fd5b620002f888838901620001e6565b945060408701519150808211156200030f57600080fd5b6200031d88838901620001e6565b935060608701519150808211156200033457600080fd5b506200034387828801620001e6565b91505092959194509250565b600181811c908216806200036457607f821691505b602082108114156200038657634e487b7160e01b600052602260045260246000fd5b50919050565b610e23806200039c6000396000f3fe608060405234801561001057600080fd5b506004361061014d5760003560e01c80638da5cb5b116100c3578063b9c9d93a1161007c578063b9c9d93a1461030f578063c5ac58e114610337578063c7273a551461034a578063e0f721271461035d578063f2fde38b1461037a578063f4ed0f461461038d57600080fd5b80638da5cb5b1461021f57806390aa0b0f1461023057806391330010146102d957806395d89b41146102ec578063b51bbbdf146102f4578063b8a0456d146102fc57600080fd5b80633b6fd2cf116101155780633b6fd2cf146101c7578063715018a6146101e15780637284e416146101e9578063782ac1d5146101f157806384ef8ffc146102045780638a97ec2a1461021757600080fd5b80630300585b1461015257806304787ca21461018257806306fdde03146101975780630752fc3d146101ac578063135d088d146101bf575b600080fd5b600154610165906001600160a01b031681565b6040516001600160a01b0390911681526020015b60405180910390f35b61019561019036600461097c565b6103ba565b005b61019f6103d9565b6040516101799190610a2d565b6101956101ba366004610ab3565b610467565b61019f61053e565b60055461016590600160501b90046001600160a01b031681565b61019561054b565b61019f61055f565b6101956101ff366004610b4f565b61056c565b600654610165906001600160a01b031681565b610195610598565b6000546001600160a01b0316610165565b600754600854600954610286926001600160681b03811692600160681b820463ffffffff1692600160881b90920467ffffffffffffffff9081169281831692600160401b8104831692600160801b909104169087565b604080516001600160681b03909816885263ffffffff909616602088015267ffffffffffffffff948516958701959095529183166060860152821660808501521660a083015260c082015260e001610179565b6101956102e7366004610b71565b610702565b61019f610731565b61019f61073e565b600254610165906001600160a01b031681565b60055461032490600160401b900461ffff1681565b60405161ffff9091168152602001610179565b61019561034536600461097c565b61074b565b610195610358366004610b95565b610766565b600d5461036a9060ff1681565b6040519015158152602001610179565b610195610388366004610bcc565b610781565b6005546103a19067ffffffffffffffff1681565b60405167ffffffffffffffff9091168152602001610179565b6103c26107fa565b80516103d590600c9060208401906108a4565b5050565b600380546103e690610be9565b80601f016020809104026020016040519081016040528092919081815260200182805461041290610be9565b801561045f5780601f106104345761010080835404028352916020019161045f565b820191906000526020600020905b81548152906001019060200180831161044257829003601f168201915b505050505081565b61046f6107fa565b8051600780546020840151604085015167ffffffffffffffff908116600160881b0267ffffffffffffffff60881b1963ffffffff909316600160681b0270ffffffffffffffffffffffffffffffffff199094166001600160681b03909616959095179290921716929092179055606082015160088054608085015160a08601518516600160801b0267ffffffffffffffff60801b19918616600160401b026fffffffffffffffffffffffffffffffff199093169490951693909317179190911691909117905560c00151600955565b600c80546103e690610be9565b6105536107fa565b61055d6000610854565b565b600a80546103e690610be9565b6105746107fa565b6005805467ffffffffffffffff191667ffffffffffffffff92909216919091179055565b6105a06107fa565b600d5460ff166105ed5760405162461bcd60e51b81526020600482015260136024820152724e6f7420766f746520636f6d706c657465642160681b60448201526064015b60405180910390fd5b600154600554600654604051633857fb1360e01b81526000936001600160a01b0390811693633857fb139361065a9360039360049367ffffffffffffffff81169361ffff600160401b83041693600160501b9092048316921690600790600a90600b90600c908901610cc4565b6020604051808303816000875af1158015610679573d6000803e3d6000fd5b505050506040513d601f19601f8201168201806040525081019061069d9190610dd0565b600280546001600160a01b0319166001600160a01b03831690811790915560408051338152602081019290925242908201529091507fca023111ce579fd569ab315f8a2a582e06724863f5f8898b2c0c6cc9ed6cd6169060600160405180910390a150565b61070a6107fa565b6005805461ffff909216600160401b0269ffff000000000000000019909216919091179055565b600480546103e690610be9565b600b80546103e690610be9565b6107536107fa565b80516103d590600b9060208401906108a4565b61076e6107fa565b600d805460ff1916911515919091179055565b6107896107fa565b6001600160a01b0381166107ee5760405162461bcd60e51b815260206004820152602660248201527f4f776e61626c653a206e6577206f776e657220697320746865207a65726f206160448201526564647265737360d01b60648201526084016105e4565b6107f781610854565b50565b6000546001600160a01b0316331461055d5760405162461bcd60e51b815260206004820181905260248201527f4f776e61626c653a2063616c6c6572206973206e6f7420746865206f776e657260448201526064016105e4565b600080546001600160a01b038381166001600160a01b0319831681178455604051919092169283917f8be0079c531659141344cd1fd0a4f28419497f9722a3daafe3b4186f6b6457e09190a35050565b8280546108b090610be9565b90600052602060002090601f0160209004810192826108d25760008555610918565b82601f106108eb57805160ff1916838001178555610918565b82800160010185558215610918579182015b828111156109185782518255916020019190600101906108fd565b50610924929150610928565b5090565b5b808211156109245760008155600101610929565b634e487b7160e01b600052604160045260246000fd5b60405160e0810167ffffffffffffffff811182821017156109765761097661093d565b60405290565b60006020828403121561098e57600080fd5b813567ffffffffffffffff808211156109a657600080fd5b818401915084601f8301126109ba57600080fd5b8135818111156109cc576109cc61093d565b604051601f8201601f19908116603f011681019083821181831017156109f4576109f461093d565b81604052828152876020848701011115610a0d57600080fd5b826020860160208301376000928101602001929092525095945050505050565b600060208083528351808285015260005b81811015610a5a57858101830151858201604001528201610a3e565b81811115610a6c576000604083870101525b50601f01601f1916929092016040019392505050565b803563ffffffff81168114610a9657600080fd5b919050565b803567ffffffffffffffff81168114610a9657600080fd5b600060e08284031215610ac557600080fd5b610acd610953565b82356001600160681b0381168114610ae457600080fd5b8152610af260208401610a82565b6020820152610b0360408401610a9b565b6040820152610b1460608401610a9b565b6060820152610b2560808401610a9b565b6080820152610b3660a08401610a9b565b60a082015260c083013560c08201528091505092915050565b600060208284031215610b6157600080fd5b610b6a82610a9b565b9392505050565b600060208284031215610b8357600080fd5b813561ffff81168114610b6a57600080fd5b600060208284031215610ba757600080fd5b81358015158114610b6a57600080fd5b6001600160a01b03811681146107f757600080fd5b600060208284031215610bde57600080fd5b8135610b6a81610bb7565b600181811c90821680610bfd57607f821691505b60208210811415610c1e57634e487b7160e01b600052602260045260246000fd5b50919050565b8054600090600181811c9080831680610c3e57607f831692505b6020808410821415610c6057634e487b7160e01b600052602260045260246000fd5b83885260208801828015610c7b5760018114610c8c57610cb7565b60ff19871682528282019750610cb7565b60008981526020902060005b87811015610cb157815484820152908601908401610c98565b83019850505b5050505050505092915050565b6000610200808352610cd88184018e610c24565b90508281036020840152610cec818d610c24565b67ffffffffffffffff8c811660408681019190915261ffff8d1660608701526001600160a01b038c8116608080890191909152908c1660a08801528a546001600160681b03811660c0890152606881901c63ffffffff1660e089015260881c831661010088015260018b01548084166101208901529182901c83166101408801521c16610160850152600288015461018085015290508281036101a0840152610d958187610c24565b90508281036101c0840152610daa8186610c24565b90508281036101e0840152610dbf8185610c24565b9d9c50505050505050505050505050565b600060208284031215610de257600080fd5b8151610b6a81610bb756fea26469706673582212208b6a389557a3a5d10cad7794eeac353f735f0e883bda0cd330c76e56045e8ca564736f6c634300080a0033",
  "linkReferences": {},
  "deployedLinkReferences": {}
}